{
  "_format": "hh-sol-artifact-1",
  "contractName": "VictorGalleryAuction",
  "sourceName": "contracts/VictorGalleryAuction.sol",
  "abi": [
    {
      "inputs": [],
      "stateMutability": "nonpayable",
      "type": "constructor"
    },
    {
      "anonymous": false,
      "inputs": [
        {
          "indexed": true,
          "internalType": "address",
          "name": "owner",
          "type": "address"
        },
        {
          "indexed": true,
          "internalType": "address",
          "name": "approved",
          "type": "address"
        },
        {
          "indexed": true,
          "internalType": "uint256",
          "name": "tokenId",
          "type": "uint256"
        }
      ],
      "name": "Approval",
      "type": "event"
    },
    {
      "anonymous": false,
      "inputs": [
        {
          "indexed": true,
          "internalType": "address",
          "name": "owner",
          "type": "address"
        },
        {
          "indexed": true,
          "internalType": "address",
          "name": "operator",
          "type": "address"
        },
        {
          "indexed": false,
          "internalType": "bool",
          "name": "approved",
          "type": "bool"
        }
      ],
      "name": "ApprovalForAll",
      "type": "event"
    },
    {
      "anonymous": false,
      "inputs": [
        {
          "indexed": true,
          "internalType": "address",
          "name": "previousOwner",
          "type": "address"
        },
        {
          "indexed": true,
          "internalType": "address",
          "name": "newOwner",
          "type": "address"
        }
      ],
      "name": "OwnershipTransferred",
      "type": "event"
    },
    {
      "anonymous": false,
      "inputs": [
        {
          "indexed": true,
          "internalType": "address",
          "name": "from",
          "type": "address"
        },
        {
          "indexed": true,
          "internalType": "address",
          "name": "to",
          "type": "address"
        },
        {
          "indexed": true,
          "internalType": "uint256",
          "name": "tokenId",
          "type": "uint256"
        }
      ],
      "name": "Transfer",
      "type": "event"
    },
    {
      "inputs": [
        {
          "internalType": "address",
          "name": "to",
          "type": "address"
        },
        {
          "internalType": "uint256",
          "name": "tokenId",
          "type": "uint256"
        }
      ],
      "name": "approve",
      "outputs": [],
      "stateMutability": "nonpayable",
      "type": "function"
    },
    {
      "inputs": [
        {
          "internalType": "address",
          "name": "owner",
          "type": "address"
        }
      ],
      "name": "balanceOf",
      "outputs": [
        {
          "internalType": "uint256",
          "name": "",
          "type": "uint256"
        }
      ],
      "stateMutability": "view",
      "type": "function"
    },
    {
      "inputs": [],
      "name": "bid",
      "outputs": [],
      "stateMutability": "payable",
      "type": "function"
    },
    {
      "inputs": [],
      "name": "end",
      "outputs": [],
      "stateMutability": "nonpayable",
      "type": "function"
    },
    {
      "inputs": [
        {
          "internalType": "uint256",
          "name": "tokenId",
          "type": "uint256"
        }
      ],
      "name": "getApproved",
      "outputs": [
        {
          "internalType": "address",
          "name": "",
          "type": "address"
        }
      ],
      "stateMutability": "view",
      "type": "function"
    },
    {
      "inputs": [],
      "name": "getDeposit",
      "outputs": [
        {
          "internalType": "uint256",
          "name": "",
          "type": "uint256"
        }
      ],
      "stateMutability": "view",
      "type": "function"
    },
    {
      "inputs": [],
      "name": "getEndTime",
      "outputs": [
        {
          "internalType": "uint256",
          "name": "",
          "type": "uint256"
        }
      ],
      "stateMutability": "view",
      "type": "function"
    },
    {
      "inputs": [],
      "name": "getHighestBid",
      "outputs": [
        {
          "internalType": "uint256",
          "name": "",
          "type": "uint256"
        }
      ],
      "stateMutability": "view",
      "type": "function"
    },
    {
      "inputs": [],
      "name": "getStartTime",
      "outputs": [
        {
          "internalType": "uint256",
          "name": "",
          "type": "uint256"
        }
      ],
      "stateMutability": "view",
      "type": "function"
    },
    {
      "inputs": [
        {
          "internalType": "address",
          "name": "owner",
          "type": "address"
        },
        {
          "internalType": "address",
          "name": "operator",
          "type": "address"
        }
      ],
      "name": "isApprovedForAll",
      "outputs": [
        {
          "internalType": "bool",
          "name": "",
          "type": "bool"
        }
      ],
      "stateMutability": "view",
      "type": "function"
    },
    {
      "inputs": [],
      "name": "name",
      "outputs": [
        {
          "internalType": "string",
          "name": "",
          "type": "string"
        }
      ],
      "stateMutability": "view",
      "type": "function"
    },
    {
      "inputs": [],
      "name": "owner",
      "outputs": [
        {
          "internalType": "address",
          "name": "",
          "type": "address"
        }
      ],
      "stateMutability": "view",
      "type": "function"
    },
    {
      "inputs": [
        {
          "internalType": "uint256",
          "name": "tokenId",
          "type": "uint256"
        }
      ],
      "name": "ownerOf",
      "outputs": [
        {
          "internalType": "address",
          "name": "",
          "type": "address"
        }
      ],
      "stateMutability": "view",
      "type": "function"
    },
    {
      "inputs": [],
      "name": "paused",
      "outputs": [
        {
          "internalType": "bool",
          "name": "",
          "type": "bool"
        }
      ],
      "stateMutability": "view",
      "type": "function"
    },
    {
      "inputs": [],
      "name": "renounceOwnership",
      "outputs": [],
      "stateMutability": "nonpayable",
      "type": "function"
    },
    {
      "inputs": [
        {
          "internalType": "address",
          "name": "from",
          "type": "address"
        },
        {
          "internalType": "address",
          "name": "to",
          "type": "address"
        },
        {
          "internalType": "uint256",
          "name": "tokenId",
          "type": "uint256"
        }
      ],
      "name": "safeTransferFrom",
      "outputs": [],
      "stateMutability": "nonpayable",
      "type": "function"
    },
    {
      "inputs": [
        {
          "internalType": "address",
          "name": "from",
          "type": "address"
        },
        {
          "internalType": "address",
          "name": "to",
          "type": "address"
        },
        {
          "internalType": "uint256",
          "name": "tokenId",
          "type": "uint256"
        },
        {
          "internalType": "bytes",
          "name": "_data",
          "type": "bytes"
        }
      ],
      "name": "safeTransferFrom",
      "outputs": [],
      "stateMutability": "nonpayable",
      "type": "function"
    },
    {
      "inputs": [
        {
          "internalType": "address",
          "name": "operator",
          "type": "address"
        },
        {
          "internalType": "bool",
          "name": "approved",
          "type": "bool"
        }
      ],
      "name": "setApprovalForAll",
      "outputs": [],
      "stateMutability": "nonpayable",
      "type": "function"
    },
    {
      "inputs": [
        {
          "internalType": "bool",
          "name": "isPaused",
          "type": "bool"
        }
      ],
      "name": "setPause",
      "outputs": [],
      "stateMutability": "nonpayable",
      "type": "function"
    },
    {
      "inputs": [
        {
          "internalType": "uint256",
          "name": "startAuction",
          "type": "uint256"
        },
        {
          "internalType": "uint256",
          "name": "endAuction",
          "type": "uint256"
        },
        {
          "internalType": "uint256",
          "name": "basePrice",
          "type": "uint256"
        }
      ],
      "name": "start",
      "outputs": [],
      "stateMutability": "nonpayable",
      "type": "function"
    },
    {
      "inputs": [
        {
          "internalType": "bytes4",
          "name": "interfaceId",
          "type": "bytes4"
        }
      ],
      "name": "supportsInterface",
      "outputs": [
        {
          "internalType": "bool",
          "name": "",
          "type": "bool"
        }
      ],
      "stateMutability": "view",
      "type": "function"
    },
    {
      "inputs": [],
      "name": "symbol",
      "outputs": [
        {
          "internalType": "string",
          "name": "",
          "type": "string"
        }
      ],
      "stateMutability": "view",
      "type": "function"
    },
    {
      "inputs": [
        {
          "internalType": "uint256",
          "name": "tokenId",
          "type": "uint256"
        }
      ],
      "name": "tokenURI",
      "outputs": [
        {
          "internalType": "string",
          "name": "",
          "type": "string"
        }
      ],
      "stateMutability": "view",
      "type": "function"
    },
    {
      "inputs": [
        {
          "internalType": "address",
          "name": "from",
          "type": "address"
        },
        {
          "internalType": "address",
          "name": "to",
          "type": "address"
        },
        {
          "internalType": "uint256",
          "name": "tokenId",
          "type": "uint256"
        }
      ],
      "name": "transferFrom",
      "outputs": [],
      "stateMutability": "nonpayable",
      "type": "function"
    },
    {
      "inputs": [
        {
          "internalType": "address",
          "name": "newOwner",
          "type": "address"
        }
      ],
      "name": "transferOwnership",
      "outputs": [],
      "stateMutability": "nonpayable",
      "type": "function"
    },
    {
      "inputs": [],
      "name": "withdraw",
      "outputs": [],
      "stateMutability": "nonpayable",
      "type": "function"
    }
  ],
  "bytecode": "0x60806040526001600860006101000a81548160ff0219169083151502179055503480156200002c57600080fd5b506040518060400160405280601081526020017f566963746f7247616c6c6572794e4654000000000000000000000000000000008152506040518060400160405280600381526020017f56474e00000000000000000000000000000000000000000000000000000000008152508160009080519060200190620000b192919062000202565b508060019080519060200190620000ca92919062000202565b505050620000ed620000e16200013460201b60201c565b6200013c60201b60201c565b33600860016101000a81548173ffffffffffffffffffffffffffffffffffffffff021916908373ffffffffffffffffffffffffffffffffffffffff16021790555062000317565b600033905090565b6000600660009054906101000a900473ffffffffffffffffffffffffffffffffffffffff16905081600660006101000a81548173ffffffffffffffffffffffffffffffffffffffff021916908373ffffffffffffffffffffffffffffffffffffffff1602179055508173ffffffffffffffffffffffffffffffffffffffff168173ffffffffffffffffffffffffffffffffffffffff167f8be0079c531659141344cd1fd0a4f28419497f9722a3daafe3b4186f6b6457e060405160405180910390a35050565b8280546200021090620002b2565b90600052602060002090601f01602090048101928262000234576000855562000280565b82601f106200024f57805160ff191683800117855562000280565b8280016001018555821562000280579182015b828111156200027f57825182559160200191906001019062000262565b5b5090506200028f919062000293565b5090565b5b80821115620002ae57600081600090555060010162000294565b5090565b60006002820490506001821680620002cb57607f821691505b60208210811415620002e257620002e1620002e8565b5b50919050565b7f4e487b7100000000000000000000000000000000000000000000000000000000600052602260045260246000fd5b6138b480620003276000396000f3fe6080604052600436106101815760003560e01c806370a08231116100d1578063bedb86fb1161008a578063c87b56dd11610064578063c87b56dd14610529578063e985e9c514610566578063efbe1c1c146105a3578063f2fde38b146105ba57610181565b8063bedb86fb146104aa578063c399ec88146104d3578063c828371e146104fe57610181565b806370a08231146103ae578063715018a6146103eb5780638da5cb5b1461040257806395d89b411461042d578063a22cb46514610458578063b88d4fde1461048157610181565b80633ccfd60b1161013e5780634979440a116101185780634979440a146102f25780635c975abb1461031d5780636352211e14610348578063641ccd831461038557610181565b80633ccfd60b1461028757806342842e0e1461029e578063439f5ac2146102c757610181565b806301ffc9a71461018657806306fdde03146101c3578063081812fc146101ee578063095ea7b31461022b5780631998aeef1461025457806323b872dd1461025e575b600080fd5b34801561019257600080fd5b506101ad60048036038101906101a8919061265c565b6105e3565b6040516101ba9190612bb1565b60405180910390f35b3480156101cf57600080fd5b506101d86106c5565b6040516101e59190612bcc565b60405180910390f35b3480156101fa57600080fd5b50610215600480360381019061021091906126ae565b610757565b6040516102229190612b4a565b60405180910390f35b34801561023757600080fd5b50610252600480360381019061024d91906125f7565b6107dc565b005b61025c6108f4565b005b34801561026a57600080fd5b50610285600480360381019061028091906124f1565b610b44565b005b34801561029357600080fd5b5061029c610ba4565b005b3480156102aa57600080fd5b506102c560048036038101906102c091906124f1565b610c77565b005b3480156102d357600080fd5b506102dc610c97565b6040516102e99190612eae565b60405180910390f35b3480156102fe57600080fd5b50610307610ca1565b6040516103149190612eae565b60405180910390f35b34801561032957600080fd5b50610332610cab565b60405161033f9190612bb1565b60405180910390f35b34801561035457600080fd5b5061036f600480360381019061036a91906126ae565b610cbe565b60405161037c9190612b4a565b60405180910390f35b34801561039157600080fd5b506103ac60048036038101906103a791906126d7565b610d70565b005b3480156103ba57600080fd5b506103d560048036038101906103d0919061248c565b610e70565b6040516103e29190612eae565b60405180910390f35b3480156103f757600080fd5b50610400610f28565b005b34801561040e57600080fd5b50610417610fb0565b6040516104249190612b4a565b60405180910390f35b34801561043957600080fd5b50610442610fda565b60405161044f9190612bcc565b60405180910390f35b34801561046457600080fd5b5061047f600480360381019061047a91906125bb565b61106c565b005b34801561048d57600080fd5b506104a860048036038101906104a39190612540565b611082565b005b3480156104b657600080fd5b506104d160048036038101906104cc9190612633565b6110e4565b005b3480156104df57600080fd5b506104e861117d565b6040516104f59190612eae565b60405180910390f35b34801561050a57600080fd5b506105136111c4565b6040516105209190612eae565b60405180910390f35b34801561053557600080fd5b50610550600480360381019061054b91906126ae565b6111ce565b60405161055d9190612bcc565b60405180910390f35b34801561057257600080fd5b5061058d600480360381019061058891906124b5565b611256565b60405161059a9190612bb1565b60405180910390f35b3480156105af57600080fd5b506105b86112ea565b005b3480156105c657600080fd5b506105e160048036038101906105dc919061248c565b6115c9565b005b60007f80ac58cd000000000000000000000000000000000000000000000000000000007bffffffffffffffffffffffffffffffffffffffffffffffffffffffff1916827bffffffffffffffffffffffffffffffffffffffffffffffffffffffff191614806106ae57507f5b5e139f000000000000000000000000000000000000000000000000000000007bffffffffffffffffffffffffffffffffffffffffffffffffffffffff1916827bffffffffffffffffffffffffffffffffffffffffffffffffffffffff1916145b806106be57506106bd826116c1565b5b9050919050565b6060600080546106d4906130d3565b80601f0160208091040260200160405190810160405280929190818152602001828054610700906130d3565b801561074d5780601f106107225761010080835404028352916020019161074d565b820191906000526020600020905b81548152906001019060200180831161073057829003601f168201915b5050505050905090565b60006107628261172b565b6107a1576040517f08c379a000000000000000000000000000000000000000000000000000000000815260040161079890612dce565b60405180910390fd5b6004600083815260200190815260200160002060009054906101000a900473ffffffffffffffffffffffffffffffffffffffff169050919050565b60006107e782610cbe565b90508073ffffffffffffffffffffffffffffffffffffffff168373ffffffffffffffffffffffffffffffffffffffff161415610858576040517f08c379a000000000000000000000000000000000000000000000000000000000815260040161084f90612e6e565b60405180910390fd5b8073ffffffffffffffffffffffffffffffffffffffff16610877611797565b73ffffffffffffffffffffffffffffffffffffffff1614806108a657506108a5816108a0611797565b611256565b5b6108e5576040517f08c379a00000000000000000000000000000000000000000000000000000000081526004016108dc90612cee565b60405180910390fd5b6108ef838361179f565b505050565b600860009054906101000a900460ff1615610944576040517f08c379a000000000000000000000000000000000000000000000000000000000815260040161093b90612dee565b60405180910390fd5b600c544211610988576040517f08c379a000000000000000000000000000000000000000000000000000000000815260040161097f90612e4e565b60405180910390fd5b600b5442106109cc576040517f08c379a00000000000000000000000000000000000000000000000000000000081526004016109c390612cce565b60405180910390fd5b600954600d60003373ffffffffffffffffffffffffffffffffffffffff1673ffffffffffffffffffffffffffffffffffffffff1681526020019081526020016000205434610a1a9190612f62565b11610a5a576040517f08c379a0000000000000000000000000000000000000000000000000000000008152600401610a5190612d8e565b60405180910390fd5b600d60003373ffffffffffffffffffffffffffffffffffffffff1673ffffffffffffffffffffffffffffffffffffffff1681526020019081526020016000205434610aa59190612f62565b60098190555033600a60006101000a81548173ffffffffffffffffffffffffffffffffffffffff021916908373ffffffffffffffffffffffffffffffffffffffff16021790555034600d60003373ffffffffffffffffffffffffffffffffffffffff1673ffffffffffffffffffffffffffffffffffffffff1681526020019081526020016000206000828254610b3b9190612f62565b92505081905550565b610b55610b4f611797565b82611858565b610b94576040517f08c379a0000000000000000000000000000000000000000000000000000000008152600401610b8b90612e8e565b60405180910390fd5b610b9f838383611936565b505050565b6000600d60003373ffffffffffffffffffffffffffffffffffffffff1673ffffffffffffffffffffffffffffffffffffffff1681526020019081526020016000205490506000600d60003373ffffffffffffffffffffffffffffffffffffffff1673ffffffffffffffffffffffffffffffffffffffff168152602001908152602001600020819055503373ffffffffffffffffffffffffffffffffffffffff166108fc829081150290604051600060405180830381858888f19350505050158015610c73573d6000803e3d6000fd5b5050565b610c9283838360405180602001604052806000815250611082565b505050565b6000600b54905090565b6000600954905090565b600860009054906101000a900460ff1681565b6000806002600084815260200190815260200160002060009054906101000a900473ffffffffffffffffffffffffffffffffffffffff169050600073ffffffffffffffffffffffffffffffffffffffff168173ffffffffffffffffffffffffffffffffffffffff161415610d67576040517f08c379a0000000000000000000000000000000000000000000000000000000008152600401610d5e90612d4e565b60405180910390fd5b80915050919050565b610d78611797565b73ffffffffffffffffffffffffffffffffffffffff16610d96610fb0565b73ffffffffffffffffffffffffffffffffffffffff1614610dec576040517f08c379a0000000000000000000000000000000000000000000000000000000008152600401610de390612e0e565b60405180910390fd5b600860009054906101000a900460ff16610e3b576040517f08c379a0000000000000000000000000000000000000000000000000000000008152600401610e3290612d6e565b60405180910390fd5b6000600860006101000a81548160ff02191690831515021790555082600c8190555081600b8190555080600981905550505050565b60008073ffffffffffffffffffffffffffffffffffffffff168273ffffffffffffffffffffffffffffffffffffffff161415610ee1576040517f08c379a0000000000000000000000000000000000000000000000000000000008152600401610ed890612d2e565b60405180910390fd5b600360008373ffffffffffffffffffffffffffffffffffffffff1673ffffffffffffffffffffffffffffffffffffffff168152602001908152602001600020549050919050565b610f30611797565b73ffffffffffffffffffffffffffffffffffffffff16610f4e610fb0565b73ffffffffffffffffffffffffffffffffffffffff1614610fa4576040517f08c379a0000000000000000000000000000000000000000000000000000000008152600401610f9b90612e0e565b60405180910390fd5b610fae6000611b9d565b565b6000600660009054906101000a900473ffffffffffffffffffffffffffffffffffffffff16905090565b606060018054610fe9906130d3565b80601f0160208091040260200160405190810160405280929190818152602001828054611015906130d3565b80156110625780601f1061103757610100808354040283529160200191611062565b820191906000526020600020905b81548152906001019060200180831161104557829003601f168201915b5050505050905090565b61107e611077611797565b8383611c63565b5050565b61109361108d611797565b83611858565b6110d2576040517f08c379a00000000000000000000000000000000000000000000000000000000081526004016110c990612e8e565b60405180910390fd5b6110de84848484611dd0565b50505050565b6110ec611797565b73ffffffffffffffffffffffffffffffffffffffff1661110a610fb0565b73ffffffffffffffffffffffffffffffffffffffff1614611160576040517f08c379a000000000000000000000000000000000000000000000000000000000815260040161115790612e0e565b60405180910390fd5b80600860006101000a81548160ff02191690831515021790555050565b6000600d60003373ffffffffffffffffffffffffffffffffffffffff1673ffffffffffffffffffffffffffffffffffffffff16815260200190815260200160002054905090565b6000600c54905090565b60606111d98261172b565b611218576040517f08c379a000000000000000000000000000000000000000000000000000000000815260040161120f90612d0e565b60405180910390fd5b6000611222611e2c565b90508061122e84611e4c565b60405160200161123f929190612b1b565b604051602081830303815290604052915050919050565b6000600560008473ffffffffffffffffffffffffffffffffffffffff1673ffffffffffffffffffffffffffffffffffffffff16815260200190815260200160002060008373ffffffffffffffffffffffffffffffffffffffff1673ffffffffffffffffffffffffffffffffffffffff16815260200190815260200160002060009054906101000a900460ff16905092915050565b6112f2611797565b73ffffffffffffffffffffffffffffffffffffffff16611310610fb0565b73ffffffffffffffffffffffffffffffffffffffff1614611366576040517f08c379a000000000000000000000000000000000000000000000000000000000815260040161135d90612e0e565b60405180910390fd5b600b5442116113aa576040517f08c379a00000000000000000000000000000000000000000000000000000000081526004016113a190612e2e565b60405180910390fd5b600954600d6000600a60009054906101000a900473ffffffffffffffffffffffffffffffffffffffff1673ffffffffffffffffffffffffffffffffffffffff1673ffffffffffffffffffffffffffffffffffffffff1681526020019081526020016000205414801561148c5750600860019054906101000a900473ffffffffffffffffffffffffffffffffffffffff1673ffffffffffffffffffffffffffffffffffffffff16600a60009054906101000a900473ffffffffffffffffffffffffffffffffffffffff1673ffffffffffffffffffffffffffffffffffffffff1614155b156115815761149b6007611ff9565b6114d0600a60009054906101000a900473ffffffffffffffffffffffffffffffffffffffff166114cb600761200f565b61201d565b6000600d6000600a60009054906101000a900473ffffffffffffffffffffffffffffffffffffffff1673ffffffffffffffffffffffffffffffffffffffff1673ffffffffffffffffffffffffffffffffffffffff168152602001908152602001600020819055503373ffffffffffffffffffffffffffffffffffffffff166108fc6009549081150290604051600060405180830381858888f1935050505015801561157f573d6000803e3d6000fd5b505b6001600860006101000a81548160ff021916908315150217905550600a60006101000a81549073ffffffffffffffffffffffffffffffffffffffff0219169055600960009055565b6115d1611797565b73ffffffffffffffffffffffffffffffffffffffff166115ef610fb0565b73ffffffffffffffffffffffffffffffffffffffff1614611645576040517f08c379a000000000000000000000000000000000000000000000000000000000815260040161163c90612e0e565b60405180910390fd5b600073ffffffffffffffffffffffffffffffffffffffff168173ffffffffffffffffffffffffffffffffffffffff1614156116b5576040517f08c379a00000000000000000000000000000000000000000000000000000000081526004016116ac90612c0e565b60405180910390fd5b6116be81611b9d565b50565b60007f01ffc9a7000000000000000000000000000000000000000000000000000000007bffffffffffffffffffffffffffffffffffffffffffffffffffffffff1916827bffffffffffffffffffffffffffffffffffffffffffffffffffffffff1916149050919050565b60008073ffffffffffffffffffffffffffffffffffffffff166002600084815260200190815260200160002060009054906101000a900473ffffffffffffffffffffffffffffffffffffffff1673ffffffffffffffffffffffffffffffffffffffff1614159050919050565b600033905090565b816004600083815260200190815260200160002060006101000a81548173ffffffffffffffffffffffffffffffffffffffff021916908373ffffffffffffffffffffffffffffffffffffffff160217905550808273ffffffffffffffffffffffffffffffffffffffff1661181283610cbe565b73ffffffffffffffffffffffffffffffffffffffff167f8c5be1e5ebec7d5bd14f71427d1e84f3dd0314c0f7b2291e5b200ac8c7c3b92560405160405180910390a45050565b60006118638261172b565b6118a2576040517f08c379a000000000000000000000000000000000000000000000000000000000815260040161189990612cae565b60405180910390fd5b60006118ad83610cbe565b90508073ffffffffffffffffffffffffffffffffffffffff168473ffffffffffffffffffffffffffffffffffffffff1614806118ef57506118ee8185611256565b5b8061192d57508373ffffffffffffffffffffffffffffffffffffffff1661191584610757565b73ffffffffffffffffffffffffffffffffffffffff16145b91505092915050565b8273ffffffffffffffffffffffffffffffffffffffff1661195682610cbe565b73ffffffffffffffffffffffffffffffffffffffff16146119ac576040517f08c379a00000000000000000000000000000000000000000000000000000000081526004016119a390612c2e565b60405180910390fd5b600073ffffffffffffffffffffffffffffffffffffffff168273ffffffffffffffffffffffffffffffffffffffff161415611a1c576040517f08c379a0000000000000000000000000000000000000000000000000000000008152600401611a1390612c6e565b60405180910390fd5b611a278383836121f7565b611a3260008261179f565b6001600360008573ffffffffffffffffffffffffffffffffffffffff1673ffffffffffffffffffffffffffffffffffffffff1681526020019081526020016000206000828254611a829190612fe9565b925050819055506001600360008473ffffffffffffffffffffffffffffffffffffffff1673ffffffffffffffffffffffffffffffffffffffff1681526020019081526020016000206000828254611ad99190612f62565b92505081905550816002600083815260200190815260200160002060006101000a81548173ffffffffffffffffffffffffffffffffffffffff021916908373ffffffffffffffffffffffffffffffffffffffff160217905550808273ffffffffffffffffffffffffffffffffffffffff168473ffffffffffffffffffffffffffffffffffffffff167fddf252ad1be2c89b69c2b068fc378daa952ba7f163c4a11628f55a4df523b3ef60405160405180910390a4611b988383836121fc565b505050565b6000600660009054906101000a900473ffffffffffffffffffffffffffffffffffffffff16905081600660006101000a81548173ffffffffffffffffffffffffffffffffffffffff021916908373ffffffffffffffffffffffffffffffffffffffff1602179055508173ffffffffffffffffffffffffffffffffffffffff168173ffffffffffffffffffffffffffffffffffffffff167f8be0079c531659141344cd1fd0a4f28419497f9722a3daafe3b4186f6b6457e060405160405180910390a35050565b8173ffffffffffffffffffffffffffffffffffffffff168373ffffffffffffffffffffffffffffffffffffffff161415611cd2576040517f08c379a0000000000000000000000000000000000000000000000000000000008152600401611cc990612c8e565b60405180910390fd5b80600560008573ffffffffffffffffffffffffffffffffffffffff1673ffffffffffffffffffffffffffffffffffffffff16815260200190815260200160002060008473ffffffffffffffffffffffffffffffffffffffff1673ffffffffffffffffffffffffffffffffffffffff16815260200190815260200160002060006101000a81548160ff0219169083151502179055508173ffffffffffffffffffffffffffffffffffffffff168373ffffffffffffffffffffffffffffffffffffffff167f17307eab39ab6107e8899845ad3d59bd9653f200f220920489ca2b5937696c3183604051611dc39190612bb1565b60405180910390a3505050565b611ddb848484611936565b611de784848484612201565b611e26576040517f08c379a0000000000000000000000000000000000000000000000000000000008152600401611e1d90612bee565b60405180910390fd5b50505050565b606060405180608001604052806054815260200161382b60549139905090565b60606000821415611e94576040518060400160405280600181526020017f30000000000000000000000000000000000000000000000000000000000000008152509050611ff4565b600082905060005b60008214611ec6578080611eaf90613136565b915050600a82611ebf9190612fb8565b9150611e9c565b60008167ffffffffffffffff811115611f08577f4e487b7100000000000000000000000000000000000000000000000000000000600052604160045260246000fd5b6040519080825280601f01601f191660200182016040528015611f3a5781602001600182028036833780820191505090505b5090505b60008514611fed57600182611f539190612fe9565b9150600a85611f62919061317f565b6030611f6e9190612f62565b60f81b818381518110611faa577f4e487b7100000000000000000000000000000000000000000000000000000000600052603260045260246000fd5b60200101907effffffffffffffffffffffffffffffffffffffffffffffffffffffffffffff1916908160001a905350600a85611fe69190612fb8565b9450611f3e565b8093505050505b919050565b6001816000016000828254019250508190555050565b600081600001549050919050565b600073ffffffffffffffffffffffffffffffffffffffff168273ffffffffffffffffffffffffffffffffffffffff16141561208d576040517f08c379a000000000000000000000000000000000000000000000000000000000815260040161208490612dae565b60405180910390fd5b6120968161172b565b156120d6576040517f08c379a00000000000000000000000000000000000000000000000000000000081526004016120cd90612c4e565b60405180910390fd5b6120e2600083836121f7565b6001600360008473ffffffffffffffffffffffffffffffffffffffff1673ffffffffffffffffffffffffffffffffffffffff16815260200190815260200160002060008282546121329190612f62565b92505081905550816002600083815260200190815260200160002060006101000a81548173ffffffffffffffffffffffffffffffffffffffff021916908373ffffffffffffffffffffffffffffffffffffffff160217905550808273ffffffffffffffffffffffffffffffffffffffff16600073ffffffffffffffffffffffffffffffffffffffff167fddf252ad1be2c89b69c2b068fc378daa952ba7f163c4a11628f55a4df523b3ef60405160405180910390a46121f3600083836121fc565b5050565b505050565b505050565b60006122228473ffffffffffffffffffffffffffffffffffffffff16612398565b1561238b578373ffffffffffffffffffffffffffffffffffffffff1663150b7a0261224b611797565b8786866040518563ffffffff1660e01b815260040161226d9493929190612b65565b602060405180830381600087803b15801561228757600080fd5b505af19250505080156122b857506040513d601f19601f820116820180604052508101906122b59190612685565b60015b61233b573d80600081146122e8576040519150601f19603f3d011682016040523d82523d6000602084013e6122ed565b606091505b50600081511415612333576040517f08c379a000000000000000000000000000000000000000000000000000000000815260040161232a90612bee565b60405180910390fd5b805181602001fd5b63150b7a0260e01b7bffffffffffffffffffffffffffffffffffffffffffffffffffffffff1916817bffffffffffffffffffffffffffffffffffffffffffffffffffffffff191614915050612390565b600190505b949350505050565b6000808273ffffffffffffffffffffffffffffffffffffffff163b119050919050565b60006123ce6123c984612eee565b612ec9565b9050828152602081018484840111156123e657600080fd5b6123f1848285613091565b509392505050565b600081359050612408816137ce565b92915050565b60008135905061241d816137e5565b92915050565b600081359050612432816137fc565b92915050565b600081519050612447816137fc565b92915050565b600082601f83011261245e57600080fd5b813561246e8482602086016123bb565b91505092915050565b60008135905061248681613813565b92915050565b60006020828403121561249e57600080fd5b60006124ac848285016123f9565b91505092915050565b600080604083850312156124c857600080fd5b60006124d6858286016123f9565b92505060206124e7858286016123f9565b9150509250929050565b60008060006060848603121561250657600080fd5b6000612514868287016123f9565b9350506020612525868287016123f9565b925050604061253686828701612477565b9150509250925092565b6000806000806080858703121561255657600080fd5b6000612564878288016123f9565b9450506020612575878288016123f9565b935050604061258687828801612477565b925050606085013567ffffffffffffffff8111156125a357600080fd5b6125af8782880161244d565b91505092959194509250565b600080604083850312156125ce57600080fd5b60006125dc858286016123f9565b92505060206125ed8582860161240e565b9150509250929050565b6000806040838503121561260a57600080fd5b6000612618858286016123f9565b925050602061262985828601612477565b9150509250929050565b60006020828403121561264557600080fd5b60006126538482850161240e565b91505092915050565b60006020828403121561266e57600080fd5b600061267c84828501612423565b91505092915050565b60006020828403121561269757600080fd5b60006126a584828501612438565b91505092915050565b6000602082840312156126c057600080fd5b60006126ce84828501612477565b91505092915050565b6000806000606084860312156126ec57600080fd5b60006126fa86828701612477565b935050602061270b86828701612477565b925050604061271c86828701612477565b9150509250925092565b61272f8161301d565b82525050565b61273e8161302f565b82525050565b600061274f82612f1f565b6127598185612f35565b93506127698185602086016130a0565b6127728161326c565b840191505092915050565b600061278882612f2a565b6127928185612f46565b93506127a28185602086016130a0565b6127ab8161326c565b840191505092915050565b60006127c182612f2a565b6127cb8185612f57565b93506127db8185602086016130a0565b80840191505092915050565b60006127f4603283612f46565b91506127ff8261327d565b604082019050919050565b6000612817602683612f46565b9150612822826132cc565b604082019050919050565b600061283a602583612f46565b91506128458261331b565b604082019050919050565b600061285d601c83612f46565b91506128688261336a565b602082019050919050565b6000612880602483612f46565b915061288b82613393565b604082019050919050565b60006128a3601983612f46565b91506128ae826133e2565b602082019050919050565b60006128c6602c83612f46565b91506128d18261340b565b604082019050919050565b60006128e9600f83612f46565b91506128f48261345a565b602082019050919050565b600061290c603883612f46565b915061291782613483565b604082019050919050565b600061292f601183612f46565b915061293a826134d2565b602082019050919050565b6000612952602a83612f46565b915061295d826134fb565b604082019050919050565b6000612975602983612f46565b91506129808261354a565b604082019050919050565b6000612998600f83612f46565b91506129a382613599565b602082019050919050565b60006129bb601683612f46565b91506129c6826135c2565b602082019050919050565b60006129de602083612f46565b91506129e9826135eb565b602082019050919050565b6000612a01602c83612f46565b9150612a0c82613614565b604082019050919050565b6000612a24600583612f57565b9150612a2f82613663565b600582019050919050565b6000612a47600e83612f46565b9150612a528261368c565b602082019050919050565b6000612a6a602083612f46565b9150612a75826136b5565b602082019050919050565b6000612a8d601483612f46565b9150612a98826136de565b602082019050919050565b6000612ab0601c83612f46565b9150612abb82613707565b602082019050919050565b6000612ad3602183612f46565b9150612ade82613730565b604082019050919050565b6000612af6603183612f46565b9150612b018261377f565b604082019050919050565b612b1581613087565b82525050565b6000612b2782856127b6565b9150612b3382846127b6565b9150612b3e82612a17565b91508190509392505050565b6000602082019050612b5f6000830184612726565b92915050565b6000608082019050612b7a6000830187612726565b612b876020830186612726565b612b946040830185612b0c565b8181036060830152612ba68184612744565b905095945050505050565b6000602082019050612bc66000830184612735565b92915050565b60006020820190508181036000830152612be6818461277d565b905092915050565b60006020820190508181036000830152612c07816127e7565b9050919050565b60006020820190508181036000830152612c278161280a565b9050919050565b60006020820190508181036000830152612c478161282d565b9050919050565b60006020820190508181036000830152612c6781612850565b9050919050565b60006020820190508181036000830152612c8781612873565b9050919050565b60006020820190508181036000830152612ca781612896565b9050919050565b60006020820190508181036000830152612cc7816128b9565b9050919050565b60006020820190508181036000830152612ce7816128dc565b9050919050565b60006020820190508181036000830152612d07816128ff565b9050919050565b60006020820190508181036000830152612d2781612922565b9050919050565b60006020820190508181036000830152612d4781612945565b9050919050565b60006020820190508181036000830152612d6781612968565b9050919050565b60006020820190508181036000830152612d878161298b565b9050919050565b60006020820190508181036000830152612da7816129ae565b9050919050565b60006020820190508181036000830152612dc7816129d1565b9050919050565b60006020820190508181036000830152612de7816129f4565b9050919050565b60006020820190508181036000830152612e0781612a3a565b9050919050565b60006020820190508181036000830152612e2781612a5d565b9050919050565b60006020820190508181036000830152612e4781612a80565b9050919050565b60006020820190508181036000830152612e6781612aa3565b9050919050565b60006020820190508181036000830152612e8781612ac6565b9050919050565b60006020820190508181036000830152612ea781612ae9565b9050919050565b6000602082019050612ec36000830184612b0c565b92915050565b6000612ed3612ee4565b9050612edf8282613105565b919050565b6000604051905090565b600067ffffffffffffffff821115612f0957612f0861323d565b5b612f128261326c565b9050602081019050919050565b600081519050919050565b600081519050919050565b600082825260208201905092915050565b600082825260208201905092915050565b600081905092915050565b6000612f6d82613087565b9150612f7883613087565b9250827fffffffffffffffffffffffffffffffffffffffffffffffffffffffffffffffff03821115612fad57612fac6131b0565b5b828201905092915050565b6000612fc382613087565b9150612fce83613087565b925082612fde57612fdd6131df565b5b828204905092915050565b6000612ff482613087565b9150612fff83613087565b925082821015613012576130116131b0565b5b828203905092915050565b600061302882613067565b9050919050565b60008115159050919050565b60007fffffffff0000000000000000000000000000000000000000000000000000000082169050919050565b600073ffffffffffffffffffffffffffffffffffffffff82169050919050565b6000819050919050565b82818337600083830152505050565b60005b838110156130be5780820151818401526020810190506130a3565b838111156130cd576000848401525b50505050565b600060028204905060018216806130eb57607f821691505b602082108114156130ff576130fe61320e565b5b50919050565b61310e8261326c565b810181811067ffffffffffffffff8211171561312d5761312c61323d565b5b80604052505050565b600061314182613087565b91507fffffffffffffffffffffffffffffffffffffffffffffffffffffffffffffffff821415613174576131736131b0565b5b600182019050919050565b600061318a82613087565b915061319583613087565b9250826131a5576131a46131df565b5b828206905092915050565b7f4e487b7100000000000000000000000000000000000000000000000000000000600052601160045260246000fd5b7f4e487b7100000000000000000000000000000000000000000000000000000000600052601260045260246000fd5b7f4e487b7100000000000000000000000000000000000000000000000000000000600052602260045260246000fd5b7f4e487b7100000000000000000000000000000000000000000000000000000000600052604160045260246000fd5b6000601f19601f8301169050919050565b7f4552433732313a207472616e7366657220746f206e6f6e20455243373231526560008201527f63656976657220696d706c656d656e7465720000000000000000000000000000602082015250565b7f4f776e61626c653a206e6577206f776e657220697320746865207a65726f206160008201527f6464726573730000000000000000000000000000000000000000000000000000602082015250565b7f4552433732313a207472616e736665722066726f6d20696e636f72726563742060008201527f6f776e6572000000000000000000000000000000000000000000000000000000602082015250565b7f4552433732313a20746f6b656e20616c7265616479206d696e74656400000000600082015250565b7f4552433732313a207472616e7366657220746f20746865207a65726f2061646460008201527f7265737300000000000000000000000000000000000000000000000000000000602082015250565b7f4552433732313a20617070726f766520746f2063616c6c657200000000000000600082015250565b7f4552433732313a206f70657261746f7220717565727920666f72206e6f6e657860008201527f697374656e7420746f6b656e0000000000000000000000000000000000000000602082015250565b7f41756374696f6e206973206f7665720000000000000000000000000000000000600082015250565b7f4552433732313a20617070726f76652063616c6c6572206973206e6f74206f7760008201527f6e6572206e6f7220617070726f76656420666f7220616c6c0000000000000000602082015250565b7f4e6f6e6578697374656e7420746f6b656e000000000000000000000000000000600082015250565b7f4552433732313a2062616c616e636520717565727920666f7220746865207a6560008201527f726f206164647265737300000000000000000000000000000000000000000000602082015250565b7f4552433732313a206f776e657220717565727920666f72206e6f6e657869737460008201527f656e7420746f6b656e0000000000000000000000000000000000000000000000602082015250565b7f416c72656164792072756e6e696e670000000000000000000000000000000000600082015250565b7f596f75206861766520746f206f66666572206d6f726500000000000000000000600082015250565b7f4552433732313a206d696e7420746f20746865207a65726f2061646472657373600082015250565b7f4552433732313a20617070726f76656420717565727920666f72206e6f6e657860008201527f697374656e7420746f6b656e0000000000000000000000000000000000000000602082015250565b7f2e6a736f6e000000000000000000000000000000000000000000000000000000600082015250565b7f41756374696f6e20706175736564000000000000000000000000000000000000600082015250565b7f4f776e61626c653a2063616c6c6572206973206e6f7420746865206f776e6572600082015250565b7f5468652074696d65206973206e6f74206f766572000000000000000000000000600082015250565b7f576169742074696c6c207468652061756374696f6e2073746172747300000000600082015250565b7f4552433732313a20617070726f76616c20746f2063757272656e74206f776e6560008201527f7200000000000000000000000000000000000000000000000000000000000000602082015250565b7f4552433732313a207472616e736665722063616c6c6572206973206e6f74206f60008201527f776e6572206e6f7220617070726f766564000000000000000000000000000000602082015250565b6137d78161301d565b81146137e257600080fd5b50565b6137ee8161302f565b81146137f957600080fd5b50565b6138058161303b565b811461381057600080fd5b50565b61381c81613087565b811461382757600080fd5b5056fe68747470733a2f2f67796d616c7068612e6d7970696e6174612e636c6f75642f697066732f516d5153393843334146734b5a32416654317a6a553167634156374a4d4576745950426d7039314b597068576b482fa2646970667358221220c4df4834132da41d9adf037f2e79ff3450d12483e2deb6491b566108190b6b2664736f6c63430008040033",
  "linkReferences": {},
  "deployedLinkReferences": {}
}