{
  "_format": "hh-sol-artifact-1",
  "contractName": "VictorGalleryAuction",
  "sourceName": "contracts/VictorGalleryAuction.sol",
  "abi": [
    {
      "inputs": [],
      "stateMutability": "nonpayable",
      "type": "constructor"
    },
    {
      "anonymous": false,
      "inputs": [
        {
          "indexed": true,
          "internalType": "address",
          "name": "owner",
          "type": "address"
        },
        {
          "indexed": true,
          "internalType": "address",
          "name": "approved",
          "type": "address"
        },
        {
          "indexed": true,
          "internalType": "uint256",
          "name": "tokenId",
          "type": "uint256"
        }
      ],
      "name": "Approval",
      "type": "event"
    },
    {
      "anonymous": false,
      "inputs": [
        {
          "indexed": true,
          "internalType": "address",
          "name": "owner",
          "type": "address"
        },
        {
          "indexed": true,
          "internalType": "address",
          "name": "operator",
          "type": "address"
        },
        {
          "indexed": false,
          "internalType": "bool",
          "name": "approved",
          "type": "bool"
        }
      ],
      "name": "ApprovalForAll",
      "type": "event"
    },
    {
      "anonymous": false,
      "inputs": [
        {
          "indexed": true,
          "internalType": "address",
          "name": "previousOwner",
          "type": "address"
        },
        {
          "indexed": true,
          "internalType": "address",
          "name": "newOwner",
          "type": "address"
        }
      ],
      "name": "OwnershipTransferred",
      "type": "event"
    },
    {
      "anonymous": false,
      "inputs": [
        {
          "indexed": true,
          "internalType": "address",
          "name": "from",
          "type": "address"
        },
        {
          "indexed": true,
          "internalType": "address",
          "name": "to",
          "type": "address"
        },
        {
          "indexed": true,
          "internalType": "uint256",
          "name": "tokenId",
          "type": "uint256"
        }
      ],
      "name": "Transfer",
      "type": "event"
    },
    {
      "inputs": [
        {
          "internalType": "address",
          "name": "to",
          "type": "address"
        },
        {
          "internalType": "uint256",
          "name": "tokenId",
          "type": "uint256"
        }
      ],
      "name": "approve",
      "outputs": [],
      "stateMutability": "nonpayable",
      "type": "function"
    },
    {
      "inputs": [
        {
          "internalType": "address",
          "name": "owner",
          "type": "address"
        }
      ],
      "name": "balanceOf",
      "outputs": [
        {
          "internalType": "uint256",
          "name": "",
          "type": "uint256"
        }
      ],
      "stateMutability": "view",
      "type": "function"
    },
    {
      "inputs": [],
      "name": "bid",
      "outputs": [],
      "stateMutability": "payable",
      "type": "function"
    },
    {
      "inputs": [],
      "name": "end",
      "outputs": [],
      "stateMutability": "nonpayable",
      "type": "function"
    },
    {
      "inputs": [
        {
          "internalType": "uint256",
          "name": "tokenId",
          "type": "uint256"
        }
      ],
      "name": "getApproved",
      "outputs": [
        {
          "internalType": "address",
          "name": "",
          "type": "address"
        }
      ],
      "stateMutability": "view",
      "type": "function"
    },
    {
      "inputs": [],
      "name": "getDeposit",
      "outputs": [
        {
          "internalType": "uint256",
          "name": "",
          "type": "uint256"
        }
      ],
      "stateMutability": "view",
      "type": "function"
    },
    {
      "inputs": [],
      "name": "getEndTime",
      "outputs": [
        {
          "internalType": "uint256",
          "name": "",
          "type": "uint256"
        }
      ],
      "stateMutability": "view",
      "type": "function"
    },
    {
      "inputs": [],
      "name": "getHighestBid",
      "outputs": [
        {
          "internalType": "uint256",
          "name": "",
          "type": "uint256"
        }
      ],
      "stateMutability": "view",
      "type": "function"
    },
    {
      "inputs": [],
      "name": "getStartTime",
      "outputs": [
        {
          "internalType": "uint256",
          "name": "",
          "type": "uint256"
        }
      ],
      "stateMutability": "view",
      "type": "function"
    },
    {
      "inputs": [
        {
          "internalType": "address",
          "name": "owner",
          "type": "address"
        },
        {
          "internalType": "address",
          "name": "operator",
          "type": "address"
        }
      ],
      "name": "isApprovedForAll",
      "outputs": [
        {
          "internalType": "bool",
          "name": "",
          "type": "bool"
        }
      ],
      "stateMutability": "view",
      "type": "function"
    },
    {
      "inputs": [],
      "name": "name",
      "outputs": [
        {
          "internalType": "string",
          "name": "",
          "type": "string"
        }
      ],
      "stateMutability": "view",
      "type": "function"
    },
    {
      "inputs": [],
      "name": "owner",
      "outputs": [
        {
          "internalType": "address",
          "name": "",
          "type": "address"
        }
      ],
      "stateMutability": "view",
      "type": "function"
    },
    {
      "inputs": [
        {
          "internalType": "uint256",
          "name": "tokenId",
          "type": "uint256"
        }
      ],
      "name": "ownerOf",
      "outputs": [
        {
          "internalType": "address",
          "name": "",
          "type": "address"
        }
      ],
      "stateMutability": "view",
      "type": "function"
    },
    {
      "inputs": [],
      "name": "paused",
      "outputs": [
        {
          "internalType": "bool",
          "name": "",
          "type": "bool"
        }
      ],
      "stateMutability": "view",
      "type": "function"
    },
    {
      "inputs": [],
      "name": "renounceOwnership",
      "outputs": [],
      "stateMutability": "nonpayable",
      "type": "function"
    },
    {
      "inputs": [
        {
          "internalType": "address",
          "name": "from",
          "type": "address"
        },
        {
          "internalType": "address",
          "name": "to",
          "type": "address"
        },
        {
          "internalType": "uint256",
          "name": "tokenId",
          "type": "uint256"
        }
      ],
      "name": "safeTransferFrom",
      "outputs": [],
      "stateMutability": "nonpayable",
      "type": "function"
    },
    {
      "inputs": [
        {
          "internalType": "address",
          "name": "from",
          "type": "address"
        },
        {
          "internalType": "address",
          "name": "to",
          "type": "address"
        },
        {
          "internalType": "uint256",
          "name": "tokenId",
          "type": "uint256"
        },
        {
          "internalType": "bytes",
          "name": "_data",
          "type": "bytes"
        }
      ],
      "name": "safeTransferFrom",
      "outputs": [],
      "stateMutability": "nonpayable",
      "type": "function"
    },
    {
      "inputs": [
        {
          "internalType": "address",
          "name": "operator",
          "type": "address"
        },
        {
          "internalType": "bool",
          "name": "approved",
          "type": "bool"
        }
      ],
      "name": "setApprovalForAll",
      "outputs": [],
      "stateMutability": "nonpayable",
      "type": "function"
    },
    {
      "inputs": [
        {
          "internalType": "bool",
          "name": "isPaused",
          "type": "bool"
        }
      ],
      "name": "setPause",
      "outputs": [],
      "stateMutability": "nonpayable",
      "type": "function"
    },
    {
      "inputs": [
        {
          "internalType": "uint256",
          "name": "startAuction",
          "type": "uint256"
        },
        {
          "internalType": "uint256",
          "name": "endAuction",
          "type": "uint256"
        },
        {
          "internalType": "uint256",
          "name": "basePrice",
          "type": "uint256"
        }
      ],
      "name": "start",
      "outputs": [],
      "stateMutability": "nonpayable",
      "type": "function"
    },
    {
      "inputs": [
        {
          "internalType": "bytes4",
          "name": "interfaceId",
          "type": "bytes4"
        }
      ],
      "name": "supportsInterface",
      "outputs": [
        {
          "internalType": "bool",
          "name": "",
          "type": "bool"
        }
      ],
      "stateMutability": "view",
      "type": "function"
    },
    {
      "inputs": [],
      "name": "symbol",
      "outputs": [
        {
          "internalType": "string",
          "name": "",
          "type": "string"
        }
      ],
      "stateMutability": "view",
      "type": "function"
    },
    {
      "inputs": [
        {
          "internalType": "uint256",
          "name": "tokenId",
          "type": "uint256"
        }
      ],
      "name": "tokenURI",
      "outputs": [
        {
          "internalType": "string",
          "name": "",
          "type": "string"
        }
      ],
      "stateMutability": "view",
      "type": "function"
    },
    {
      "inputs": [
        {
          "internalType": "address",
          "name": "from",
          "type": "address"
        },
        {
          "internalType": "address",
          "name": "to",
          "type": "address"
        },
        {
          "internalType": "uint256",
          "name": "tokenId",
          "type": "uint256"
        }
      ],
      "name": "transferFrom",
      "outputs": [],
      "stateMutability": "nonpayable",
      "type": "function"
    },
    {
      "inputs": [
        {
          "internalType": "address",
          "name": "newOwner",
          "type": "address"
        }
      ],
      "name": "transferOwnership",
      "outputs": [],
      "stateMutability": "nonpayable",
      "type": "function"
    },
    {
      "inputs": [],
      "name": "withdraw",
      "outputs": [],
      "stateMutability": "nonpayable",
      "type": "function"
    }
  ],
  "bytecode": "0x60806040526001600860006101000a81548160ff0219169083151502179055503480156200002c57600080fd5b506040518060400160405280601081526020017f566963746f7247616c6c6572794e4654000000000000000000000000000000008152506040518060400160405280600381526020017f56474e00000000000000000000000000000000000000000000000000000000008152508160009080519060200190620000b192919062000202565b508060019080519060200190620000ca92919062000202565b505050620000ed620000e16200013460201b60201c565b6200013c60201b60201c565b33600860016101000a81548173ffffffffffffffffffffffffffffffffffffffff021916908373ffffffffffffffffffffffffffffffffffffffff16021790555062000317565b600033905090565b6000600660009054906101000a900473ffffffffffffffffffffffffffffffffffffffff16905081600660006101000a81548173ffffffffffffffffffffffffffffffffffffffff021916908373ffffffffffffffffffffffffffffffffffffffff1602179055508173ffffffffffffffffffffffffffffffffffffffff168173ffffffffffffffffffffffffffffffffffffffff167f8be0079c531659141344cd1fd0a4f28419497f9722a3daafe3b4186f6b6457e060405160405180910390a35050565b8280546200021090620002b2565b90600052602060002090601f01602090048101928262000234576000855562000280565b82601f106200024f57805160ff191683800117855562000280565b8280016001018555821562000280579182015b828111156200027f57825182559160200191906001019062000262565b5b5090506200028f919062000293565b5090565b5b80821115620002ae57600081600090555060010162000294565b5090565b60006002820490506001821680620002cb57607f821691505b60208210811415620002e257620002e1620002e8565b5b50919050565b7f4e487b7100000000000000000000000000000000000000000000000000000000600052602260045260246000fd5b61386b80620003276000396000f3fe6080604052600436106101815760003560e01c806370a08231116100d1578063bedb86fb1161008a578063c87b56dd11610064578063c87b56dd14610529578063e985e9c514610566578063efbe1c1c146105a3578063f2fde38b146105ba57610181565b8063bedb86fb146104aa578063c399ec88146104d3578063c828371e146104fe57610181565b806370a08231146103ae578063715018a6146103eb5780638da5cb5b1461040257806395d89b411461042d578063a22cb46514610458578063b88d4fde1461048157610181565b80633ccfd60b1161013e5780634979440a116101185780634979440a146102f25780635c975abb1461031d5780636352211e14610348578063641ccd831461038557610181565b80633ccfd60b1461028757806342842e0e1461029e578063439f5ac2146102c757610181565b806301ffc9a71461018657806306fdde03146101c3578063081812fc146101ee578063095ea7b31461022b5780631998aeef1461025457806323b872dd1461025e575b600080fd5b34801561019257600080fd5b506101ad60048036038101906101a89190612613565b6105e3565b6040516101ba9190612b68565b60405180910390f35b3480156101cf57600080fd5b506101d86106c5565b6040516101e59190612b83565b60405180910390f35b3480156101fa57600080fd5b5061021560048036038101906102109190612665565b610757565b6040516102229190612b01565b60405180910390f35b34801561023757600080fd5b50610252600480360381019061024d91906125ae565b6107dc565b005b61025c6108f4565b005b34801561026a57600080fd5b50610285600480360381019061028091906124a8565b610b44565b005b34801561029357600080fd5b5061029c610ba4565b005b3480156102aa57600080fd5b506102c560048036038101906102c091906124a8565b610c77565b005b3480156102d357600080fd5b506102dc610c97565b6040516102e99190612e65565b60405180910390f35b3480156102fe57600080fd5b50610307610ca1565b6040516103149190612e65565b60405180910390f35b34801561032957600080fd5b50610332610cab565b60405161033f9190612b68565b60405180910390f35b34801561035457600080fd5b5061036f600480360381019061036a9190612665565b610cbe565b60405161037c9190612b01565b60405180910390f35b34801561039157600080fd5b506103ac60048036038101906103a7919061268e565b610d70565b005b3480156103ba57600080fd5b506103d560048036038101906103d09190612443565b610e70565b6040516103e29190612e65565b60405180910390f35b3480156103f757600080fd5b50610400610f28565b005b34801561040e57600080fd5b50610417610fb0565b6040516104249190612b01565b60405180910390f35b34801561043957600080fd5b50610442610fda565b60405161044f9190612b83565b60405180910390f35b34801561046457600080fd5b5061047f600480360381019061047a9190612572565b61106c565b005b34801561048d57600080fd5b506104a860048036038101906104a391906124f7565b611082565b005b3480156104b657600080fd5b506104d160048036038101906104cc91906125ea565b6110e4565b005b3480156104df57600080fd5b506104e861117d565b6040516104f59190612e65565b60405180910390f35b34801561050a57600080fd5b506105136111c4565b6040516105209190612e65565b60405180910390f35b34801561053557600080fd5b50610550600480360381019061054b9190612665565b6111ce565b60405161055d9190612b83565b60405180910390f35b34801561057257600080fd5b5061058d6004803603810190610588919061246c565b611256565b60405161059a9190612b68565b60405180910390f35b3480156105af57600080fd5b506105b86112ea565b005b3480156105c657600080fd5b506105e160048036038101906105dc9190612443565b611580565b005b60007f80ac58cd000000000000000000000000000000000000000000000000000000007bffffffffffffffffffffffffffffffffffffffffffffffffffffffff1916827bffffffffffffffffffffffffffffffffffffffffffffffffffffffff191614806106ae57507f5b5e139f000000000000000000000000000000000000000000000000000000007bffffffffffffffffffffffffffffffffffffffffffffffffffffffff1916827bffffffffffffffffffffffffffffffffffffffffffffffffffffffff1916145b806106be57506106bd82611678565b5b9050919050565b6060600080546106d49061308a565b80601f01602080910402602001604051908101604052809291908181526020018280546107009061308a565b801561074d5780601f106107225761010080835404028352916020019161074d565b820191906000526020600020905b81548152906001019060200180831161073057829003601f168201915b5050505050905090565b6000610762826116e2565b6107a1576040517f08c379a000000000000000000000000000000000000000000000000000000000815260040161079890612d85565b60405180910390fd5b6004600083815260200190815260200160002060009054906101000a900473ffffffffffffffffffffffffffffffffffffffff169050919050565b60006107e782610cbe565b90508073ffffffffffffffffffffffffffffffffffffffff168373ffffffffffffffffffffffffffffffffffffffff161415610858576040517f08c379a000000000000000000000000000000000000000000000000000000000815260040161084f90612e25565b60405180910390fd5b8073ffffffffffffffffffffffffffffffffffffffff1661087761174e565b73ffffffffffffffffffffffffffffffffffffffff1614806108a657506108a5816108a061174e565b611256565b5b6108e5576040517f08c379a00000000000000000000000000000000000000000000000000000000081526004016108dc90612ca5565b60405180910390fd5b6108ef8383611756565b505050565b600860009054906101000a900460ff1615610944576040517f08c379a000000000000000000000000000000000000000000000000000000000815260040161093b90612da5565b60405180910390fd5b600c544211610988576040517f08c379a000000000000000000000000000000000000000000000000000000000815260040161097f90612e05565b60405180910390fd5b600b5442106109cc576040517f08c379a00000000000000000000000000000000000000000000000000000000081526004016109c390612c85565b60405180910390fd5b600954600d60003373ffffffffffffffffffffffffffffffffffffffff1673ffffffffffffffffffffffffffffffffffffffff1681526020019081526020016000205434610a1a9190612f19565b11610a5a576040517f08c379a0000000000000000000000000000000000000000000000000000000008152600401610a5190612d45565b60405180910390fd5b600d60003373ffffffffffffffffffffffffffffffffffffffff1673ffffffffffffffffffffffffffffffffffffffff1681526020019081526020016000205434610aa59190612f19565b60098190555033600a60006101000a81548173ffffffffffffffffffffffffffffffffffffffff021916908373ffffffffffffffffffffffffffffffffffffffff16021790555034600d60003373ffffffffffffffffffffffffffffffffffffffff1673ffffffffffffffffffffffffffffffffffffffff1681526020019081526020016000206000828254610b3b9190612f19565b92505081905550565b610b55610b4f61174e565b8261180f565b610b94576040517f08c379a0000000000000000000000000000000000000000000000000000000008152600401610b8b90612e45565b60405180910390fd5b610b9f8383836118ed565b505050565b6000600d60003373ffffffffffffffffffffffffffffffffffffffff1673ffffffffffffffffffffffffffffffffffffffff1681526020019081526020016000205490506000600d60003373ffffffffffffffffffffffffffffffffffffffff1673ffffffffffffffffffffffffffffffffffffffff168152602001908152602001600020819055503373ffffffffffffffffffffffffffffffffffffffff166108fc829081150290604051600060405180830381858888f19350505050158015610c73573d6000803e3d6000fd5b5050565b610c9283838360405180602001604052806000815250611082565b505050565b6000600b54905090565b6000600954905090565b600860009054906101000a900460ff1681565b6000806002600084815260200190815260200160002060009054906101000a900473ffffffffffffffffffffffffffffffffffffffff169050600073ffffffffffffffffffffffffffffffffffffffff168173ffffffffffffffffffffffffffffffffffffffff161415610d67576040517f08c379a0000000000000000000000000000000000000000000000000000000008152600401610d5e90612d05565b60405180910390fd5b80915050919050565b610d7861174e565b73ffffffffffffffffffffffffffffffffffffffff16610d96610fb0565b73ffffffffffffffffffffffffffffffffffffffff1614610dec576040517f08c379a0000000000000000000000000000000000000000000000000000000008152600401610de390612dc5565b60405180910390fd5b600860009054906101000a900460ff16610e3b576040517f08c379a0000000000000000000000000000000000000000000000000000000008152600401610e3290612d25565b60405180910390fd5b6000600860006101000a81548160ff02191690831515021790555082600c8190555081600b8190555080600981905550505050565b60008073ffffffffffffffffffffffffffffffffffffffff168273ffffffffffffffffffffffffffffffffffffffff161415610ee1576040517f08c379a0000000000000000000000000000000000000000000000000000000008152600401610ed890612ce5565b60405180910390fd5b600360008373ffffffffffffffffffffffffffffffffffffffff1673ffffffffffffffffffffffffffffffffffffffff168152602001908152602001600020549050919050565b610f3061174e565b73ffffffffffffffffffffffffffffffffffffffff16610f4e610fb0565b73ffffffffffffffffffffffffffffffffffffffff1614610fa4576040517f08c379a0000000000000000000000000000000000000000000000000000000008152600401610f9b90612dc5565b60405180910390fd5b610fae6000611b54565b565b6000600660009054906101000a900473ffffffffffffffffffffffffffffffffffffffff16905090565b606060018054610fe99061308a565b80601f01602080910402602001604051908101604052809291908181526020018280546110159061308a565b80156110625780601f1061103757610100808354040283529160200191611062565b820191906000526020600020905b81548152906001019060200180831161104557829003601f168201915b5050505050905090565b61107e61107761174e565b8383611c1a565b5050565b61109361108d61174e565b8361180f565b6110d2576040517f08c379a00000000000000000000000000000000000000000000000000000000081526004016110c990612e45565b60405180910390fd5b6110de84848484611d87565b50505050565b6110ec61174e565b73ffffffffffffffffffffffffffffffffffffffff1661110a610fb0565b73ffffffffffffffffffffffffffffffffffffffff1614611160576040517f08c379a000000000000000000000000000000000000000000000000000000000815260040161115790612dc5565b60405180910390fd5b80600860006101000a81548160ff02191690831515021790555050565b6000600d60003373ffffffffffffffffffffffffffffffffffffffff1673ffffffffffffffffffffffffffffffffffffffff16815260200190815260200160002054905090565b6000600c54905090565b60606111d9826116e2565b611218576040517f08c379a000000000000000000000000000000000000000000000000000000000815260040161120f90612cc5565b60405180910390fd5b6000611222611de3565b90508061122e84611e03565b60405160200161123f929190612ad2565b604051602081830303815290604052915050919050565b6000600560008473ffffffffffffffffffffffffffffffffffffffff1673ffffffffffffffffffffffffffffffffffffffff16815260200190815260200160002060008373ffffffffffffffffffffffffffffffffffffffff1673ffffffffffffffffffffffffffffffffffffffff16815260200190815260200160002060009054906101000a900460ff16905092915050565b6112f261174e565b73ffffffffffffffffffffffffffffffffffffffff16611310610fb0565b73ffffffffffffffffffffffffffffffffffffffff1614611366576040517f08c379a000000000000000000000000000000000000000000000000000000000815260040161135d90612dc5565b60405180910390fd5b600b5442116113aa576040517f08c379a00000000000000000000000000000000000000000000000000000000081526004016113a190612de5565b60405180910390fd5b600954600d6000600a60009054906101000a900473ffffffffffffffffffffffffffffffffffffffff1673ffffffffffffffffffffffffffffffffffffffff1673ffffffffffffffffffffffffffffffffffffffff1681526020019081526020016000205414801561148c5750600860019054906101000a900473ffffffffffffffffffffffffffffffffffffffff1673ffffffffffffffffffffffffffffffffffffffff16600a60009054906101000a900473ffffffffffffffffffffffffffffffffffffffff1673ffffffffffffffffffffffffffffffffffffffff1614155b156115385761149b6007611fb0565b6114d0600a60009054906101000a900473ffffffffffffffffffffffffffffffffffffffff166114cb6007611fc6565b611fd4565b6000600d6000600a60009054906101000a900473ffffffffffffffffffffffffffffffffffffffff1673ffffffffffffffffffffffffffffffffffffffff1673ffffffffffffffffffffffffffffffffffffffff168152602001908152602001600020819055505b6001600860006101000a81548160ff021916908315150217905550600a60006101000a81549073ffffffffffffffffffffffffffffffffffffffff0219169055600960009055565b61158861174e565b73ffffffffffffffffffffffffffffffffffffffff166115a6610fb0565b73ffffffffffffffffffffffffffffffffffffffff16146115fc576040517f08c379a00000000000000000000000000000000000000000000000000000000081526004016115f390612dc5565b60405180910390fd5b600073ffffffffffffffffffffffffffffffffffffffff168173ffffffffffffffffffffffffffffffffffffffff16141561166c576040517f08c379a000000000000000000000000000000000000000000000000000000000815260040161166390612bc5565b60405180910390fd5b61167581611b54565b50565b60007f01ffc9a7000000000000000000000000000000000000000000000000000000007bffffffffffffffffffffffffffffffffffffffffffffffffffffffff1916827bffffffffffffffffffffffffffffffffffffffffffffffffffffffff1916149050919050565b60008073ffffffffffffffffffffffffffffffffffffffff166002600084815260200190815260200160002060009054906101000a900473ffffffffffffffffffffffffffffffffffffffff1673ffffffffffffffffffffffffffffffffffffffff1614159050919050565b600033905090565b816004600083815260200190815260200160002060006101000a81548173ffffffffffffffffffffffffffffffffffffffff021916908373ffffffffffffffffffffffffffffffffffffffff160217905550808273ffffffffffffffffffffffffffffffffffffffff166117c983610cbe565b73ffffffffffffffffffffffffffffffffffffffff167f8c5be1e5ebec7d5bd14f71427d1e84f3dd0314c0f7b2291e5b200ac8c7c3b92560405160405180910390a45050565b600061181a826116e2565b611859576040517f08c379a000000000000000000000000000000000000000000000000000000000815260040161185090612c65565b60405180910390fd5b600061186483610cbe565b90508073ffffffffffffffffffffffffffffffffffffffff168473ffffffffffffffffffffffffffffffffffffffff1614806118a657506118a58185611256565b5b806118e457508373ffffffffffffffffffffffffffffffffffffffff166118cc84610757565b73ffffffffffffffffffffffffffffffffffffffff16145b91505092915050565b8273ffffffffffffffffffffffffffffffffffffffff1661190d82610cbe565b73ffffffffffffffffffffffffffffffffffffffff1614611963576040517f08c379a000000000000000000000000000000000000000000000000000000000815260040161195a90612be5565b60405180910390fd5b600073ffffffffffffffffffffffffffffffffffffffff168273ffffffffffffffffffffffffffffffffffffffff1614156119d3576040517f08c379a00000000000000000000000000000000000000000000000000000000081526004016119ca90612c25565b60405180910390fd5b6119de8383836121ae565b6119e9600082611756565b6001600360008573ffffffffffffffffffffffffffffffffffffffff1673ffffffffffffffffffffffffffffffffffffffff1681526020019081526020016000206000828254611a399190612fa0565b925050819055506001600360008473ffffffffffffffffffffffffffffffffffffffff1673ffffffffffffffffffffffffffffffffffffffff1681526020019081526020016000206000828254611a909190612f19565b92505081905550816002600083815260200190815260200160002060006101000a81548173ffffffffffffffffffffffffffffffffffffffff021916908373ffffffffffffffffffffffffffffffffffffffff160217905550808273ffffffffffffffffffffffffffffffffffffffff168473ffffffffffffffffffffffffffffffffffffffff167fddf252ad1be2c89b69c2b068fc378daa952ba7f163c4a11628f55a4df523b3ef60405160405180910390a4611b4f8383836121b3565b505050565b6000600660009054906101000a900473ffffffffffffffffffffffffffffffffffffffff16905081600660006101000a81548173ffffffffffffffffffffffffffffffffffffffff021916908373ffffffffffffffffffffffffffffffffffffffff1602179055508173ffffffffffffffffffffffffffffffffffffffff168173ffffffffffffffffffffffffffffffffffffffff167f8be0079c531659141344cd1fd0a4f28419497f9722a3daafe3b4186f6b6457e060405160405180910390a35050565b8173ffffffffffffffffffffffffffffffffffffffff168373ffffffffffffffffffffffffffffffffffffffff161415611c89576040517f08c379a0000000000000000000000000000000000000000000000000000000008152600401611c8090612c45565b60405180910390fd5b80600560008573ffffffffffffffffffffffffffffffffffffffff1673ffffffffffffffffffffffffffffffffffffffff16815260200190815260200160002060008473ffffffffffffffffffffffffffffffffffffffff1673ffffffffffffffffffffffffffffffffffffffff16815260200190815260200160002060006101000a81548160ff0219169083151502179055508173ffffffffffffffffffffffffffffffffffffffff168373ffffffffffffffffffffffffffffffffffffffff167f17307eab39ab6107e8899845ad3d59bd9653f200f220920489ca2b5937696c3183604051611d7a9190612b68565b60405180910390a3505050565b611d928484846118ed565b611d9e848484846121b8565b611ddd576040517f08c379a0000000000000000000000000000000000000000000000000000000008152600401611dd490612ba5565b60405180910390fd5b50505050565b60606040518060800160405280605481526020016137e260549139905090565b60606000821415611e4b576040518060400160405280600181526020017f30000000000000000000000000000000000000000000000000000000000000008152509050611fab565b600082905060005b60008214611e7d578080611e66906130ed565b915050600a82611e769190612f6f565b9150611e53565b60008167ffffffffffffffff811115611ebf577f4e487b7100000000000000000000000000000000000000000000000000000000600052604160045260246000fd5b6040519080825280601f01601f191660200182016040528015611ef15781602001600182028036833780820191505090505b5090505b60008514611fa457600182611f0a9190612fa0565b9150600a85611f199190613136565b6030611f259190612f19565b60f81b818381518110611f61577f4e487b7100000000000000000000000000000000000000000000000000000000600052603260045260246000fd5b60200101907effffffffffffffffffffffffffffffffffffffffffffffffffffffffffffff1916908160001a905350600a85611f9d9190612f6f565b9450611ef5565b8093505050505b919050565b6001816000016000828254019250508190555050565b600081600001549050919050565b600073ffffffffffffffffffffffffffffffffffffffff168273ffffffffffffffffffffffffffffffffffffffff161415612044576040517f08c379a000000000000000000000000000000000000000000000000000000000815260040161203b90612d65565b60405180910390fd5b61204d816116e2565b1561208d576040517f08c379a000000000000000000000000000000000000000000000000000000000815260040161208490612c05565b60405180910390fd5b612099600083836121ae565b6001600360008473ffffffffffffffffffffffffffffffffffffffff1673ffffffffffffffffffffffffffffffffffffffff16815260200190815260200160002060008282546120e99190612f19565b92505081905550816002600083815260200190815260200160002060006101000a81548173ffffffffffffffffffffffffffffffffffffffff021916908373ffffffffffffffffffffffffffffffffffffffff160217905550808273ffffffffffffffffffffffffffffffffffffffff16600073ffffffffffffffffffffffffffffffffffffffff167fddf252ad1be2c89b69c2b068fc378daa952ba7f163c4a11628f55a4df523b3ef60405160405180910390a46121aa600083836121b3565b5050565b505050565b505050565b60006121d98473ffffffffffffffffffffffffffffffffffffffff1661234f565b15612342578373ffffffffffffffffffffffffffffffffffffffff1663150b7a0261220261174e565b8786866040518563ffffffff1660e01b81526004016122249493929190612b1c565b602060405180830381600087803b15801561223e57600080fd5b505af192505050801561226f57506040513d601f19601f8201168201806040525081019061226c919061263c565b60015b6122f2573d806000811461229f576040519150601f19603f3d011682016040523d82523d6000602084013e6122a4565b606091505b506000815114156122ea576040517f08c379a00000000000000000000000000000000000000000000000000000000081526004016122e190612ba5565b60405180910390fd5b805181602001fd5b63150b7a0260e01b7bffffffffffffffffffffffffffffffffffffffffffffffffffffffff1916817bffffffffffffffffffffffffffffffffffffffffffffffffffffffff191614915050612347565b600190505b949350505050565b6000808273ffffffffffffffffffffffffffffffffffffffff163b119050919050565b600061238561238084612ea5565b612e80565b90508281526020810184848401111561239d57600080fd5b6123a8848285613048565b509392505050565b6000813590506123bf81613785565b92915050565b6000813590506123d48161379c565b92915050565b6000813590506123e9816137b3565b92915050565b6000815190506123fe816137b3565b92915050565b600082601f83011261241557600080fd5b8135612425848260208601612372565b91505092915050565b60008135905061243d816137ca565b92915050565b60006020828403121561245557600080fd5b6000612463848285016123b0565b91505092915050565b6000806040838503121561247f57600080fd5b600061248d858286016123b0565b925050602061249e858286016123b0565b9150509250929050565b6000806000606084860312156124bd57600080fd5b60006124cb868287016123b0565b93505060206124dc868287016123b0565b92505060406124ed8682870161242e565b9150509250925092565b6000806000806080858703121561250d57600080fd5b600061251b878288016123b0565b945050602061252c878288016123b0565b935050604061253d8782880161242e565b925050606085013567ffffffffffffffff81111561255a57600080fd5b61256687828801612404565b91505092959194509250565b6000806040838503121561258557600080fd5b6000612593858286016123b0565b92505060206125a4858286016123c5565b9150509250929050565b600080604083850312156125c157600080fd5b60006125cf858286016123b0565b92505060206125e08582860161242e565b9150509250929050565b6000602082840312156125fc57600080fd5b600061260a848285016123c5565b91505092915050565b60006020828403121561262557600080fd5b6000612633848285016123da565b91505092915050565b60006020828403121561264e57600080fd5b600061265c848285016123ef565b91505092915050565b60006020828403121561267757600080fd5b60006126858482850161242e565b91505092915050565b6000806000606084860312156126a357600080fd5b60006126b18682870161242e565b93505060206126c28682870161242e565b92505060406126d38682870161242e565b9150509250925092565b6126e681612fd4565b82525050565b6126f581612fe6565b82525050565b600061270682612ed6565b6127108185612eec565b9350612720818560208601613057565b61272981613223565b840191505092915050565b600061273f82612ee1565b6127498185612efd565b9350612759818560208601613057565b61276281613223565b840191505092915050565b600061277882612ee1565b6127828185612f0e565b9350612792818560208601613057565b80840191505092915050565b60006127ab603283612efd565b91506127b682613234565b604082019050919050565b60006127ce602683612efd565b91506127d982613283565b604082019050919050565b60006127f1602583612efd565b91506127fc826132d2565b604082019050919050565b6000612814601c83612efd565b915061281f82613321565b602082019050919050565b6000612837602483612efd565b91506128428261334a565b604082019050919050565b600061285a601983612efd565b915061286582613399565b602082019050919050565b600061287d602c83612efd565b9150612888826133c2565b604082019050919050565b60006128a0600f83612efd565b91506128ab82613411565b602082019050919050565b60006128c3603883612efd565b91506128ce8261343a565b604082019050919050565b60006128e6601183612efd565b91506128f182613489565b602082019050919050565b6000612909602a83612efd565b9150612914826134b2565b604082019050919050565b600061292c602983612efd565b915061293782613501565b604082019050919050565b600061294f600f83612efd565b915061295a82613550565b602082019050919050565b6000612972601683612efd565b915061297d82613579565b602082019050919050565b6000612995602083612efd565b91506129a0826135a2565b602082019050919050565b60006129b8602c83612efd565b91506129c3826135cb565b604082019050919050565b60006129db600583612f0e565b91506129e68261361a565b600582019050919050565b60006129fe600e83612efd565b9150612a0982613643565b602082019050919050565b6000612a21602083612efd565b9150612a2c8261366c565b602082019050919050565b6000612a44601483612efd565b9150612a4f82613695565b602082019050919050565b6000612a67601c83612efd565b9150612a72826136be565b602082019050919050565b6000612a8a602183612efd565b9150612a95826136e7565b604082019050919050565b6000612aad603183612efd565b9150612ab882613736565b604082019050919050565b612acc8161303e565b82525050565b6000612ade828561276d565b9150612aea828461276d565b9150612af5826129ce565b91508190509392505050565b6000602082019050612b1660008301846126dd565b92915050565b6000608082019050612b3160008301876126dd565b612b3e60208301866126dd565b612b4b6040830185612ac3565b8181036060830152612b5d81846126fb565b905095945050505050565b6000602082019050612b7d60008301846126ec565b92915050565b60006020820190508181036000830152612b9d8184612734565b905092915050565b60006020820190508181036000830152612bbe8161279e565b9050919050565b60006020820190508181036000830152612bde816127c1565b9050919050565b60006020820190508181036000830152612bfe816127e4565b9050919050565b60006020820190508181036000830152612c1e81612807565b9050919050565b60006020820190508181036000830152612c3e8161282a565b9050919050565b60006020820190508181036000830152612c5e8161284d565b9050919050565b60006020820190508181036000830152612c7e81612870565b9050919050565b60006020820190508181036000830152612c9e81612893565b9050919050565b60006020820190508181036000830152612cbe816128b6565b9050919050565b60006020820190508181036000830152612cde816128d9565b9050919050565b60006020820190508181036000830152612cfe816128fc565b9050919050565b60006020820190508181036000830152612d1e8161291f565b9050919050565b60006020820190508181036000830152612d3e81612942565b9050919050565b60006020820190508181036000830152612d5e81612965565b9050919050565b60006020820190508181036000830152612d7e81612988565b9050919050565b60006020820190508181036000830152612d9e816129ab565b9050919050565b60006020820190508181036000830152612dbe816129f1565b9050919050565b60006020820190508181036000830152612dde81612a14565b9050919050565b60006020820190508181036000830152612dfe81612a37565b9050919050565b60006020820190508181036000830152612e1e81612a5a565b9050919050565b60006020820190508181036000830152612e3e81612a7d565b9050919050565b60006020820190508181036000830152612e5e81612aa0565b9050919050565b6000602082019050612e7a6000830184612ac3565b92915050565b6000612e8a612e9b565b9050612e9682826130bc565b919050565b6000604051905090565b600067ffffffffffffffff821115612ec057612ebf6131f4565b5b612ec982613223565b9050602081019050919050565b600081519050919050565b600081519050919050565b600082825260208201905092915050565b600082825260208201905092915050565b600081905092915050565b6000612f248261303e565b9150612f2f8361303e565b9250827fffffffffffffffffffffffffffffffffffffffffffffffffffffffffffffffff03821115612f6457612f63613167565b5b828201905092915050565b6000612f7a8261303e565b9150612f858361303e565b925082612f9557612f94613196565b5b828204905092915050565b6000612fab8261303e565b9150612fb68361303e565b925082821015612fc957612fc8613167565b5b828203905092915050565b6000612fdf8261301e565b9050919050565b60008115159050919050565b60007fffffffff0000000000000000000000000000000000000000000000000000000082169050919050565b600073ffffffffffffffffffffffffffffffffffffffff82169050919050565b6000819050919050565b82818337600083830152505050565b60005b8381101561307557808201518184015260208101905061305a565b83811115613084576000848401525b50505050565b600060028204905060018216806130a257607f821691505b602082108114156130b6576130b56131c5565b5b50919050565b6130c582613223565b810181811067ffffffffffffffff821117156130e4576130e36131f4565b5b80604052505050565b60006130f88261303e565b91507fffffffffffffffffffffffffffffffffffffffffffffffffffffffffffffffff82141561312b5761312a613167565b5b600182019050919050565b60006131418261303e565b915061314c8361303e565b92508261315c5761315b613196565b5b828206905092915050565b7f4e487b7100000000000000000000000000000000000000000000000000000000600052601160045260246000fd5b7f4e487b7100000000000000000000000000000000000000000000000000000000600052601260045260246000fd5b7f4e487b7100000000000000000000000000000000000000000000000000000000600052602260045260246000fd5b7f4e487b7100000000000000000000000000000000000000000000000000000000600052604160045260246000fd5b6000601f19601f8301169050919050565b7f4552433732313a207472616e7366657220746f206e6f6e20455243373231526560008201527f63656976657220696d706c656d656e7465720000000000000000000000000000602082015250565b7f4f776e61626c653a206e6577206f776e657220697320746865207a65726f206160008201527f6464726573730000000000000000000000000000000000000000000000000000602082015250565b7f4552433732313a207472616e736665722066726f6d20696e636f72726563742060008201527f6f776e6572000000000000000000000000000000000000000000000000000000602082015250565b7f4552433732313a20746f6b656e20616c7265616479206d696e74656400000000600082015250565b7f4552433732313a207472616e7366657220746f20746865207a65726f2061646460008201527f7265737300000000000000000000000000000000000000000000000000000000602082015250565b7f4552433732313a20617070726f766520746f2063616c6c657200000000000000600082015250565b7f4552433732313a206f70657261746f7220717565727920666f72206e6f6e657860008201527f697374656e7420746f6b656e0000000000000000000000000000000000000000602082015250565b7f41756374696f6e206973206f7665720000000000000000000000000000000000600082015250565b7f4552433732313a20617070726f76652063616c6c6572206973206e6f74206f7760008201527f6e6572206e6f7220617070726f76656420666f7220616c6c0000000000000000602082015250565b7f4e6f6e6578697374656e7420746f6b656e000000000000000000000000000000600082015250565b7f4552433732313a2062616c616e636520717565727920666f7220746865207a6560008201527f726f206164647265737300000000000000000000000000000000000000000000602082015250565b7f4552433732313a206f776e657220717565727920666f72206e6f6e657869737460008201527f656e7420746f6b656e0000000000000000000000000000000000000000000000602082015250565b7f416c72656164792072756e6e696e670000000000000000000000000000000000600082015250565b7f596f75206861766520746f206f66666572206d6f726500000000000000000000600082015250565b7f4552433732313a206d696e7420746f20746865207a65726f2061646472657373600082015250565b7f4552433732313a20617070726f76656420717565727920666f72206e6f6e657860008201527f697374656e7420746f6b656e0000000000000000000000000000000000000000602082015250565b7f2e6a736f6e000000000000000000000000000000000000000000000000000000600082015250565b7f41756374696f6e20706175736564000000000000000000000000000000000000600082015250565b7f4f776e61626c653a2063616c6c6572206973206e6f7420746865206f776e6572600082015250565b7f5468652074696d65206973206e6f74206f766572000000000000000000000000600082015250565b7f576169742074696c6c207468652061756374696f6e2073746172747300000000600082015250565b7f4552433732313a20617070726f76616c20746f2063757272656e74206f776e6560008201527f7200000000000000000000000000000000000000000000000000000000000000602082015250565b7f4552433732313a207472616e736665722063616c6c6572206973206e6f74206f60008201527f776e6572206e6f7220617070726f766564000000000000000000000000000000602082015250565b61378e81612fd4565b811461379957600080fd5b50565b6137a581612fe6565b81146137b057600080fd5b50565b6137bc81612ff2565b81146137c757600080fd5b50565b6137d38161303e565b81146137de57600080fd5b5056fe68747470733a2f2f67796d616c7068612e6d7970696e6174612e636c6f75642f697066732f516d5153393843334146734b5a32416654317a6a553167634156374a4d4576745950426d7039314b597068576b482fa264697066735822122043782511da433978fc2d88f06f59c29ab9a27ae227d171b1f5fa1e1fd7c2f2c764736f6c63430008040033",
  "linkReferences": {},
  "deployedLinkReferences": {}
}