{
  "_format": "hh-sol-artifact-1",
  "contractName": "VictorGalleryAuction",
  "sourceName": "contracts/VictorGalleryAuction.sol",
  "abi": [
    {
      "inputs": [],
      "stateMutability": "nonpayable",
      "type": "constructor"
    },
    {
      "anonymous": false,
      "inputs": [
        {
          "indexed": true,
          "internalType": "address",
          "name": "owner",
          "type": "address"
        },
        {
          "indexed": true,
          "internalType": "address",
          "name": "approved",
          "type": "address"
        },
        {
          "indexed": true,
          "internalType": "uint256",
          "name": "tokenId",
          "type": "uint256"
        }
      ],
      "name": "Approval",
      "type": "event"
    },
    {
      "anonymous": false,
      "inputs": [
        {
          "indexed": true,
          "internalType": "address",
          "name": "owner",
          "type": "address"
        },
        {
          "indexed": true,
          "internalType": "address",
          "name": "operator",
          "type": "address"
        },
        {
          "indexed": false,
          "internalType": "bool",
          "name": "approved",
          "type": "bool"
        }
      ],
      "name": "ApprovalForAll",
      "type": "event"
    },
    {
      "anonymous": false,
      "inputs": [
        {
          "indexed": true,
          "internalType": "address",
          "name": "previousOwner",
          "type": "address"
        },
        {
          "indexed": true,
          "internalType": "address",
          "name": "newOwner",
          "type": "address"
        }
      ],
      "name": "OwnershipTransferred",
      "type": "event"
    },
    {
      "anonymous": false,
      "inputs": [
        {
          "indexed": true,
          "internalType": "address",
          "name": "from",
          "type": "address"
        },
        {
          "indexed": true,
          "internalType": "address",
          "name": "to",
          "type": "address"
        },
        {
          "indexed": true,
          "internalType": "uint256",
          "name": "tokenId",
          "type": "uint256"
        }
      ],
      "name": "Transfer",
      "type": "event"
    },
    {
      "inputs": [
        {
          "internalType": "address",
          "name": "to",
          "type": "address"
        },
        {
          "internalType": "uint256",
          "name": "tokenId",
          "type": "uint256"
        }
      ],
      "name": "approve",
      "outputs": [],
      "stateMutability": "nonpayable",
      "type": "function"
    },
    {
      "inputs": [
        {
          "internalType": "address",
          "name": "owner",
          "type": "address"
        }
      ],
      "name": "balanceOf",
      "outputs": [
        {
          "internalType": "uint256",
          "name": "",
          "type": "uint256"
        }
      ],
      "stateMutability": "view",
      "type": "function"
    },
    {
      "inputs": [],
      "name": "bid",
      "outputs": [],
      "stateMutability": "payable",
      "type": "function"
    },
    {
      "inputs": [],
      "name": "end",
      "outputs": [],
      "stateMutability": "nonpayable",
      "type": "function"
    },
    {
      "inputs": [],
      "name": "fastMint",
      "outputs": [],
      "stateMutability": "nonpayable",
      "type": "function"
    },
    {
      "inputs": [
        {
          "internalType": "uint256",
          "name": "tokenId",
          "type": "uint256"
        }
      ],
      "name": "getApproved",
      "outputs": [
        {
          "internalType": "address",
          "name": "",
          "type": "address"
        }
      ],
      "stateMutability": "view",
      "type": "function"
    },
    {
      "inputs": [],
      "name": "getDeposit",
      "outputs": [
        {
          "internalType": "uint256",
          "name": "",
          "type": "uint256"
        }
      ],
      "stateMutability": "view",
      "type": "function"
    },
    {
      "inputs": [],
      "name": "getEndTime",
      "outputs": [
        {
          "internalType": "uint256",
          "name": "",
          "type": "uint256"
        }
      ],
      "stateMutability": "view",
      "type": "function"
    },
    {
      "inputs": [],
      "name": "getHighestBid",
      "outputs": [
        {
          "internalType": "uint256",
          "name": "",
          "type": "uint256"
        }
      ],
      "stateMutability": "view",
      "type": "function"
    },
    {
      "inputs": [],
      "name": "getStartTime",
      "outputs": [
        {
          "internalType": "uint256",
          "name": "",
          "type": "uint256"
        }
      ],
      "stateMutability": "view",
      "type": "function"
    },
    {
      "inputs": [
        {
          "internalType": "address",
          "name": "owner",
          "type": "address"
        },
        {
          "internalType": "address",
          "name": "operator",
          "type": "address"
        }
      ],
      "name": "isApprovedForAll",
      "outputs": [
        {
          "internalType": "bool",
          "name": "",
          "type": "bool"
        }
      ],
      "stateMutability": "view",
      "type": "function"
    },
    {
      "inputs": [],
      "name": "name",
      "outputs": [
        {
          "internalType": "string",
          "name": "",
          "type": "string"
        }
      ],
      "stateMutability": "view",
      "type": "function"
    },
    {
      "inputs": [],
      "name": "owner",
      "outputs": [
        {
          "internalType": "address",
          "name": "",
          "type": "address"
        }
      ],
      "stateMutability": "view",
      "type": "function"
    },
    {
      "inputs": [
        {
          "internalType": "uint256",
          "name": "tokenId",
          "type": "uint256"
        }
      ],
      "name": "ownerOf",
      "outputs": [
        {
          "internalType": "address",
          "name": "",
          "type": "address"
        }
      ],
      "stateMutability": "view",
      "type": "function"
    },
    {
      "inputs": [],
      "name": "paused",
      "outputs": [
        {
          "internalType": "bool",
          "name": "",
          "type": "bool"
        }
      ],
      "stateMutability": "view",
      "type": "function"
    },
    {
      "inputs": [],
      "name": "renounceOwnership",
      "outputs": [],
      "stateMutability": "nonpayable",
      "type": "function"
    },
    {
      "inputs": [
        {
          "internalType": "address",
          "name": "from",
          "type": "address"
        },
        {
          "internalType": "address",
          "name": "to",
          "type": "address"
        },
        {
          "internalType": "uint256",
          "name": "tokenId",
          "type": "uint256"
        }
      ],
      "name": "safeTransferFrom",
      "outputs": [],
      "stateMutability": "nonpayable",
      "type": "function"
    },
    {
      "inputs": [
        {
          "internalType": "address",
          "name": "from",
          "type": "address"
        },
        {
          "internalType": "address",
          "name": "to",
          "type": "address"
        },
        {
          "internalType": "uint256",
          "name": "tokenId",
          "type": "uint256"
        },
        {
          "internalType": "bytes",
          "name": "_data",
          "type": "bytes"
        }
      ],
      "name": "safeTransferFrom",
      "outputs": [],
      "stateMutability": "nonpayable",
      "type": "function"
    },
    {
      "inputs": [
        {
          "internalType": "address",
          "name": "operator",
          "type": "address"
        },
        {
          "internalType": "bool",
          "name": "approved",
          "type": "bool"
        }
      ],
      "name": "setApprovalForAll",
      "outputs": [],
      "stateMutability": "nonpayable",
      "type": "function"
    },
    {
      "inputs": [
        {
          "internalType": "bool",
          "name": "isPaused",
          "type": "bool"
        }
      ],
      "name": "setPause",
      "outputs": [],
      "stateMutability": "nonpayable",
      "type": "function"
    },
    {
      "inputs": [
        {
          "internalType": "uint256",
          "name": "startAuction",
          "type": "uint256"
        },
        {
          "internalType": "uint256",
          "name": "endAuction",
          "type": "uint256"
        },
        {
          "internalType": "uint256",
          "name": "basePrice",
          "type": "uint256"
        }
      ],
      "name": "start",
      "outputs": [],
      "stateMutability": "nonpayable",
      "type": "function"
    },
    {
      "inputs": [
        {
          "internalType": "bytes4",
          "name": "interfaceId",
          "type": "bytes4"
        }
      ],
      "name": "supportsInterface",
      "outputs": [
        {
          "internalType": "bool",
          "name": "",
          "type": "bool"
        }
      ],
      "stateMutability": "view",
      "type": "function"
    },
    {
      "inputs": [],
      "name": "symbol",
      "outputs": [
        {
          "internalType": "string",
          "name": "",
          "type": "string"
        }
      ],
      "stateMutability": "view",
      "type": "function"
    },
    {
      "inputs": [
        {
          "internalType": "uint256",
          "name": "tokenId",
          "type": "uint256"
        }
      ],
      "name": "tokenURI",
      "outputs": [
        {
          "internalType": "string",
          "name": "",
          "type": "string"
        }
      ],
      "stateMutability": "view",
      "type": "function"
    },
    {
      "inputs": [
        {
          "internalType": "address",
          "name": "from",
          "type": "address"
        },
        {
          "internalType": "address",
          "name": "to",
          "type": "address"
        },
        {
          "internalType": "uint256",
          "name": "tokenId",
          "type": "uint256"
        }
      ],
      "name": "transferFrom",
      "outputs": [],
      "stateMutability": "nonpayable",
      "type": "function"
    },
    {
      "inputs": [
        {
          "internalType": "address",
          "name": "newOwner",
          "type": "address"
        }
      ],
      "name": "transferOwnership",
      "outputs": [],
      "stateMutability": "nonpayable",
      "type": "function"
    },
    {
      "inputs": [],
      "name": "withdraw",
      "outputs": [],
      "stateMutability": "nonpayable",
      "type": "function"
    }
  ],
  "bytecode": "0x60806040526001600860006101000a81548160ff0219169083151502179055503480156200002c57600080fd5b506040518060400160405280601081526020017f566963746f7247616c6c6572794e4654000000000000000000000000000000008152506040518060400160405280600381526020017f56474e00000000000000000000000000000000000000000000000000000000008152508160009080519060200190620000b192919062000202565b508060019080519060200190620000ca92919062000202565b505050620000ed620000e16200013460201b60201c565b6200013c60201b60201c565b33600860016101000a81548173ffffffffffffffffffffffffffffffffffffffff021916908373ffffffffffffffffffffffffffffffffffffffff16021790555062000317565b600033905090565b6000600660009054906101000a900473ffffffffffffffffffffffffffffffffffffffff16905081600660006101000a81548173ffffffffffffffffffffffffffffffffffffffff021916908373ffffffffffffffffffffffffffffffffffffffff1602179055508173ffffffffffffffffffffffffffffffffffffffff168173ffffffffffffffffffffffffffffffffffffffff167f8be0079c531659141344cd1fd0a4f28419497f9722a3daafe3b4186f6b6457e060405160405180910390a35050565b8280546200021090620002b2565b90600052602060002090601f01602090048101928262000234576000855562000280565b82601f106200024f57805160ff191683800117855562000280565b8280016001018555821562000280579182015b828111156200027f57825182559160200191906001019062000262565b5b5090506200028f919062000293565b5090565b5b80821115620002ae57600081600090555060010162000294565b5090565b60006002820490506001821680620002cb57607f821691505b60208210811415620002e257620002e1620002e8565b5b50919050565b7f4e487b7100000000000000000000000000000000000000000000000000000000600052602260045260246000fd5b61390580620003276000396000f3fe60806040526004361061019c5760003560e01c806370a08231116100ec578063c399ec881161008a578063e985e9c511610064578063e985e9c514610581578063ec885184146105be578063efbe1c1c146105d5578063f2fde38b146105ec5761019c565b8063c399ec88146104ee578063c828371e14610519578063c87b56dd146105445761019c565b806395d89b41116100c657806395d89b4114610448578063a22cb46514610473578063b88d4fde1461049c578063bedb86fb146104c55761019c565b806370a08231146103c9578063715018a6146104065780638da5cb5b1461041d5761019c565b80633ccfd60b116101595780634979440a116101335780634979440a1461030d5780635c975abb146103385780636352211e14610363578063641ccd83146103a05761019c565b80633ccfd60b146102a257806342842e0e146102b9578063439f5ac2146102e25761019c565b806301ffc9a7146101a157806306fdde03146101de578063081812fc14610209578063095ea7b3146102465780631998aeef1461026f57806323b872dd14610279575b600080fd5b3480156101ad57600080fd5b506101c860048036038101906101c391906126ad565b610615565b6040516101d59190612c02565b60405180910390f35b3480156101ea57600080fd5b506101f36106f7565b6040516102009190612c1d565b60405180910390f35b34801561021557600080fd5b50610230600480360381019061022b91906126ff565b610789565b60405161023d9190612b9b565b60405180910390f35b34801561025257600080fd5b5061026d60048036038101906102689190612648565b61080e565b005b610277610926565b005b34801561028557600080fd5b506102a0600480360381019061029b9190612542565b610b76565b005b3480156102ae57600080fd5b506102b7610bd6565b005b3480156102c557600080fd5b506102e060048036038101906102db9190612542565b610ca9565b005b3480156102ee57600080fd5b506102f7610cc9565b6040516103049190612eff565b60405180910390f35b34801561031957600080fd5b50610322610cd3565b60405161032f9190612eff565b60405180910390f35b34801561034457600080fd5b5061034d610cdd565b60405161035a9190612c02565b60405180910390f35b34801561036f57600080fd5b5061038a600480360381019061038591906126ff565b610cf0565b6040516103979190612b9b565b60405180910390f35b3480156103ac57600080fd5b506103c760048036038101906103c29190612728565b610da2565b005b3480156103d557600080fd5b506103f060048036038101906103eb91906124dd565b610ea2565b6040516103fd9190612eff565b60405180910390f35b34801561041257600080fd5b5061041b610f5a565b005b34801561042957600080fd5b50610432610fe2565b60405161043f9190612b9b565b60405180910390f35b34801561045457600080fd5b5061045d61100c565b60405161046a9190612c1d565b60405180910390f35b34801561047f57600080fd5b5061049a6004803603810190610495919061260c565b61109e565b005b3480156104a857600080fd5b506104c360048036038101906104be9190612591565b6110b4565b005b3480156104d157600080fd5b506104ec60048036038101906104e79190612684565b611116565b005b3480156104fa57600080fd5b506105036111af565b6040516105109190612eff565b60405180910390f35b34801561052557600080fd5b5061052e6111f6565b60405161053b9190612eff565b60405180910390f35b34801561055057600080fd5b5061056b600480360381019061056691906126ff565b611200565b6040516105789190612c1d565b60405180910390f35b34801561058d57600080fd5b506105a860048036038101906105a39190612506565b611288565b6040516105b59190612c02565b60405180910390f35b3480156105ca57600080fd5b506105d361131c565b005b3480156105e157600080fd5b506105ea61133b565b005b3480156105f857600080fd5b50610613600480360381019061060e91906124dd565b61161a565b005b60007f80ac58cd000000000000000000000000000000000000000000000000000000007bffffffffffffffffffffffffffffffffffffffffffffffffffffffff1916827bffffffffffffffffffffffffffffffffffffffffffffffffffffffff191614806106e057507f5b5e139f000000000000000000000000000000000000000000000000000000007bffffffffffffffffffffffffffffffffffffffffffffffffffffffff1916827bffffffffffffffffffffffffffffffffffffffffffffffffffffffff1916145b806106f057506106ef82611712565b5b9050919050565b60606000805461070690613124565b80601f016020809104026020016040519081016040528092919081815260200182805461073290613124565b801561077f5780601f106107545761010080835404028352916020019161077f565b820191906000526020600020905b81548152906001019060200180831161076257829003601f168201915b5050505050905090565b60006107948261177c565b6107d3576040517f08c379a00000000000000000000000000000000000000000000000000000000081526004016107ca90612e1f565b60405180910390fd5b6004600083815260200190815260200160002060009054906101000a900473ffffffffffffffffffffffffffffffffffffffff169050919050565b600061081982610cf0565b90508073ffffffffffffffffffffffffffffffffffffffff168373ffffffffffffffffffffffffffffffffffffffff16141561088a576040517f08c379a000000000000000000000000000000000000000000000000000000000815260040161088190612ebf565b60405180910390fd5b8073ffffffffffffffffffffffffffffffffffffffff166108a96117e8565b73ffffffffffffffffffffffffffffffffffffffff1614806108d857506108d7816108d26117e8565b611288565b5b610917576040517f08c379a000000000000000000000000000000000000000000000000000000000815260040161090e90612d3f565b60405180910390fd5b61092183836117f0565b505050565b600860009054906101000a900460ff1615610976576040517f08c379a000000000000000000000000000000000000000000000000000000000815260040161096d90612e3f565b60405180910390fd5b600c5442116109ba576040517f08c379a00000000000000000000000000000000000000000000000000000000081526004016109b190612e9f565b60405180910390fd5b600b5442106109fe576040517f08c379a00000000000000000000000000000000000000000000000000000000081526004016109f590612d1f565b60405180910390fd5b600954600d60003373ffffffffffffffffffffffffffffffffffffffff1673ffffffffffffffffffffffffffffffffffffffff1681526020019081526020016000205434610a4c9190612fb3565b11610a8c576040517f08c379a0000000000000000000000000000000000000000000000000000000008152600401610a8390612ddf565b60405180910390fd5b600d60003373ffffffffffffffffffffffffffffffffffffffff1673ffffffffffffffffffffffffffffffffffffffff1681526020019081526020016000205434610ad79190612fb3565b60098190555033600a60006101000a81548173ffffffffffffffffffffffffffffffffffffffff021916908373ffffffffffffffffffffffffffffffffffffffff16021790555034600d60003373ffffffffffffffffffffffffffffffffffffffff1673ffffffffffffffffffffffffffffffffffffffff1681526020019081526020016000206000828254610b6d9190612fb3565b92505081905550565b610b87610b816117e8565b826118a9565b610bc6576040517f08c379a0000000000000000000000000000000000000000000000000000000008152600401610bbd90612edf565b60405180910390fd5b610bd1838383611987565b505050565b6000600d60003373ffffffffffffffffffffffffffffffffffffffff1673ffffffffffffffffffffffffffffffffffffffff1681526020019081526020016000205490506000600d60003373ffffffffffffffffffffffffffffffffffffffff1673ffffffffffffffffffffffffffffffffffffffff168152602001908152602001600020819055503373ffffffffffffffffffffffffffffffffffffffff166108fc829081150290604051600060405180830381858888f19350505050158015610ca5573d6000803e3d6000fd5b5050565b610cc4838383604051806020016040528060008152506110b4565b505050565b6000600b54905090565b6000600954905090565b600860009054906101000a900460ff1681565b6000806002600084815260200190815260200160002060009054906101000a900473ffffffffffffffffffffffffffffffffffffffff169050600073ffffffffffffffffffffffffffffffffffffffff168173ffffffffffffffffffffffffffffffffffffffff161415610d99576040517f08c379a0000000000000000000000000000000000000000000000000000000008152600401610d9090612d9f565b60405180910390fd5b80915050919050565b610daa6117e8565b73ffffffffffffffffffffffffffffffffffffffff16610dc8610fe2565b73ffffffffffffffffffffffffffffffffffffffff1614610e1e576040517f08c379a0000000000000000000000000000000000000000000000000000000008152600401610e1590612e5f565b60405180910390fd5b600860009054906101000a900460ff16610e6d576040517f08c379a0000000000000000000000000000000000000000000000000000000008152600401610e6490612dbf565b60405180910390fd5b6000600860006101000a81548160ff02191690831515021790555082600c8190555081600b8190555080600981905550505050565b60008073ffffffffffffffffffffffffffffffffffffffff168273ffffffffffffffffffffffffffffffffffffffff161415610f13576040517f08c379a0000000000000000000000000000000000000000000000000000000008152600401610f0a90612d7f565b60405180910390fd5b600360008373ffffffffffffffffffffffffffffffffffffffff1673ffffffffffffffffffffffffffffffffffffffff168152602001908152602001600020549050919050565b610f626117e8565b73ffffffffffffffffffffffffffffffffffffffff16610f80610fe2565b73ffffffffffffffffffffffffffffffffffffffff1614610fd6576040517f08c379a0000000000000000000000000000000000000000000000000000000008152600401610fcd90612e5f565b60405180910390fd5b610fe06000611bee565b565b6000600660009054906101000a900473ffffffffffffffffffffffffffffffffffffffff16905090565b60606001805461101b90613124565b80601f016020809104026020016040519081016040528092919081815260200182805461104790613124565b80156110945780601f1061106957610100808354040283529160200191611094565b820191906000526020600020905b81548152906001019060200180831161107757829003601f168201915b5050505050905090565b6110b06110a96117e8565b8383611cb4565b5050565b6110c56110bf6117e8565b836118a9565b611104576040517f08c379a00000000000000000000000000000000000000000000000000000000081526004016110fb90612edf565b60405180910390fd5b61111084848484611e21565b50505050565b61111e6117e8565b73ffffffffffffffffffffffffffffffffffffffff1661113c610fe2565b73ffffffffffffffffffffffffffffffffffffffff1614611192576040517f08c379a000000000000000000000000000000000000000000000000000000000815260040161118990612e5f565b60405180910390fd5b80600860006101000a81548160ff02191690831515021790555050565b6000600d60003373ffffffffffffffffffffffffffffffffffffffff1673ffffffffffffffffffffffffffffffffffffffff16815260200190815260200160002054905090565b6000600c54905090565b606061120b8261177c565b61124a576040517f08c379a000000000000000000000000000000000000000000000000000000000815260040161124190612d5f565b60405180910390fd5b6000611254611e7d565b90508061126084611e9d565b604051602001611271929190612b6c565b604051602081830303815290604052915050919050565b6000600560008473ffffffffffffffffffffffffffffffffffffffff1673ffffffffffffffffffffffffffffffffffffffff16815260200190815260200160002060008373ffffffffffffffffffffffffffffffffffffffff1673ffffffffffffffffffffffffffffffffffffffff16815260200190815260200160002060009054906101000a900460ff16905092915050565b61132f3361132a600761204a565b612058565b6113396007612232565b565b6113436117e8565b73ffffffffffffffffffffffffffffffffffffffff16611361610fe2565b73ffffffffffffffffffffffffffffffffffffffff16146113b7576040517f08c379a00000000000000000000000000000000000000000000000000000000081526004016113ae90612e5f565b60405180910390fd5b600b5442116113fb576040517f08c379a00000000000000000000000000000000000000000000000000000000081526004016113f290612e7f565b60405180910390fd5b600954600d6000600a60009054906101000a900473ffffffffffffffffffffffffffffffffffffffff1673ffffffffffffffffffffffffffffffffffffffff1673ffffffffffffffffffffffffffffffffffffffff168152602001908152602001600020541480156114dd5750600860019054906101000a900473ffffffffffffffffffffffffffffffffffffffff1673ffffffffffffffffffffffffffffffffffffffff16600a60009054906101000a900473ffffffffffffffffffffffffffffffffffffffff1673ffffffffffffffffffffffffffffffffffffffff1614155b156115d2576114ec6007612232565b611521600a60009054906101000a900473ffffffffffffffffffffffffffffffffffffffff1661151c600761204a565b612058565b6000600d6000600a60009054906101000a900473ffffffffffffffffffffffffffffffffffffffff1673ffffffffffffffffffffffffffffffffffffffff1673ffffffffffffffffffffffffffffffffffffffff168152602001908152602001600020819055503373ffffffffffffffffffffffffffffffffffffffff166108fc6009549081150290604051600060405180830381858888f193505050501580156115d0573d6000803e3d6000fd5b505b6001600860006101000a81548160ff021916908315150217905550600a60006101000a81549073ffffffffffffffffffffffffffffffffffffffff0219169055600960009055565b6116226117e8565b73ffffffffffffffffffffffffffffffffffffffff16611640610fe2565b73ffffffffffffffffffffffffffffffffffffffff1614611696576040517f08c379a000000000000000000000000000000000000000000000000000000000815260040161168d90612e5f565b60405180910390fd5b600073ffffffffffffffffffffffffffffffffffffffff168173ffffffffffffffffffffffffffffffffffffffff161415611706576040517f08c379a00000000000000000000000000000000000000000000000000000000081526004016116fd90612c5f565b60405180910390fd5b61170f81611bee565b50565b60007f01ffc9a7000000000000000000000000000000000000000000000000000000007bffffffffffffffffffffffffffffffffffffffffffffffffffffffff1916827bffffffffffffffffffffffffffffffffffffffffffffffffffffffff1916149050919050565b60008073ffffffffffffffffffffffffffffffffffffffff166002600084815260200190815260200160002060009054906101000a900473ffffffffffffffffffffffffffffffffffffffff1673ffffffffffffffffffffffffffffffffffffffff1614159050919050565b600033905090565b816004600083815260200190815260200160002060006101000a81548173ffffffffffffffffffffffffffffffffffffffff021916908373ffffffffffffffffffffffffffffffffffffffff160217905550808273ffffffffffffffffffffffffffffffffffffffff1661186383610cf0565b73ffffffffffffffffffffffffffffffffffffffff167f8c5be1e5ebec7d5bd14f71427d1e84f3dd0314c0f7b2291e5b200ac8c7c3b92560405160405180910390a45050565b60006118b48261177c565b6118f3576040517f08c379a00000000000000000000000000000000000000000000000000000000081526004016118ea90612cff565b60405180910390fd5b60006118fe83610cf0565b90508073ffffffffffffffffffffffffffffffffffffffff168473ffffffffffffffffffffffffffffffffffffffff161480611940575061193f8185611288565b5b8061197e57508373ffffffffffffffffffffffffffffffffffffffff1661196684610789565b73ffffffffffffffffffffffffffffffffffffffff16145b91505092915050565b8273ffffffffffffffffffffffffffffffffffffffff166119a782610cf0565b73ffffffffffffffffffffffffffffffffffffffff16146119fd576040517f08c379a00000000000000000000000000000000000000000000000000000000081526004016119f490612c7f565b60405180910390fd5b600073ffffffffffffffffffffffffffffffffffffffff168273ffffffffffffffffffffffffffffffffffffffff161415611a6d576040517f08c379a0000000000000000000000000000000000000000000000000000000008152600401611a6490612cbf565b60405180910390fd5b611a78838383612248565b611a836000826117f0565b6001600360008573ffffffffffffffffffffffffffffffffffffffff1673ffffffffffffffffffffffffffffffffffffffff1681526020019081526020016000206000828254611ad3919061303a565b925050819055506001600360008473ffffffffffffffffffffffffffffffffffffffff1673ffffffffffffffffffffffffffffffffffffffff1681526020019081526020016000206000828254611b2a9190612fb3565b92505081905550816002600083815260200190815260200160002060006101000a81548173ffffffffffffffffffffffffffffffffffffffff021916908373ffffffffffffffffffffffffffffffffffffffff160217905550808273ffffffffffffffffffffffffffffffffffffffff168473ffffffffffffffffffffffffffffffffffffffff167fddf252ad1be2c89b69c2b068fc378daa952ba7f163c4a11628f55a4df523b3ef60405160405180910390a4611be983838361224d565b505050565b6000600660009054906101000a900473ffffffffffffffffffffffffffffffffffffffff16905081600660006101000a81548173ffffffffffffffffffffffffffffffffffffffff021916908373ffffffffffffffffffffffffffffffffffffffff1602179055508173ffffffffffffffffffffffffffffffffffffffff168173ffffffffffffffffffffffffffffffffffffffff167f8be0079c531659141344cd1fd0a4f28419497f9722a3daafe3b4186f6b6457e060405160405180910390a35050565b8173ffffffffffffffffffffffffffffffffffffffff168373ffffffffffffffffffffffffffffffffffffffff161415611d23576040517f08c379a0000000000000000000000000000000000000000000000000000000008152600401611d1a90612cdf565b60405180910390fd5b80600560008573ffffffffffffffffffffffffffffffffffffffff1673ffffffffffffffffffffffffffffffffffffffff16815260200190815260200160002060008473ffffffffffffffffffffffffffffffffffffffff1673ffffffffffffffffffffffffffffffffffffffff16815260200190815260200160002060006101000a81548160ff0219169083151502179055508173ffffffffffffffffffffffffffffffffffffffff168373ffffffffffffffffffffffffffffffffffffffff167f17307eab39ab6107e8899845ad3d59bd9653f200f220920489ca2b5937696c3183604051611e149190612c02565b60405180910390a3505050565b611e2c848484611987565b611e3884848484612252565b611e77576040517f08c379a0000000000000000000000000000000000000000000000000000000008152600401611e6e90612c3f565b60405180910390fd5b50505050565b606060405180608001604052806054815260200161387c60549139905090565b60606000821415611ee5576040518060400160405280600181526020017f30000000000000000000000000000000000000000000000000000000000000008152509050612045565b600082905060005b60008214611f17578080611f0090613187565b915050600a82611f109190613009565b9150611eed565b60008167ffffffffffffffff811115611f59577f4e487b7100000000000000000000000000000000000000000000000000000000600052604160045260246000fd5b6040519080825280601f01601f191660200182016040528015611f8b5781602001600182028036833780820191505090505b5090505b6000851461203e57600182611fa4919061303a565b9150600a85611fb391906131d0565b6030611fbf9190612fb3565b60f81b818381518110611ffb577f4e487b7100000000000000000000000000000000000000000000000000000000600052603260045260246000fd5b60200101907effffffffffffffffffffffffffffffffffffffffffffffffffffffffffffff1916908160001a905350600a856120379190613009565b9450611f8f565b8093505050505b919050565b600081600001549050919050565b600073ffffffffffffffffffffffffffffffffffffffff168273ffffffffffffffffffffffffffffffffffffffff1614156120c8576040517f08c379a00000000000000000000000000000000000000000000000000000000081526004016120bf90612dff565b60405180910390fd5b6120d18161177c565b15612111576040517f08c379a000000000000000000000000000000000000000000000000000000000815260040161210890612c9f565b60405180910390fd5b61211d60008383612248565b6001600360008473ffffffffffffffffffffffffffffffffffffffff1673ffffffffffffffffffffffffffffffffffffffff168152602001908152602001600020600082825461216d9190612fb3565b92505081905550816002600083815260200190815260200160002060006101000a81548173ffffffffffffffffffffffffffffffffffffffff021916908373ffffffffffffffffffffffffffffffffffffffff160217905550808273ffffffffffffffffffffffffffffffffffffffff16600073ffffffffffffffffffffffffffffffffffffffff167fddf252ad1be2c89b69c2b068fc378daa952ba7f163c4a11628f55a4df523b3ef60405160405180910390a461222e6000838361224d565b5050565b6001816000016000828254019250508190555050565b505050565b505050565b60006122738473ffffffffffffffffffffffffffffffffffffffff166123e9565b156123dc578373ffffffffffffffffffffffffffffffffffffffff1663150b7a0261229c6117e8565b8786866040518563ffffffff1660e01b81526004016122be9493929190612bb6565b602060405180830381600087803b1580156122d857600080fd5b505af192505050801561230957506040513d601f19601f8201168201806040525081019061230691906126d6565b60015b61238c573d8060008114612339576040519150601f19603f3d011682016040523d82523d6000602084013e61233e565b606091505b50600081511415612384576040517f08c379a000000000000000000000000000000000000000000000000000000000815260040161237b90612c3f565b60405180910390fd5b805181602001fd5b63150b7a0260e01b7bffffffffffffffffffffffffffffffffffffffffffffffffffffffff1916817bffffffffffffffffffffffffffffffffffffffffffffffffffffffff1916149150506123e1565b600190505b949350505050565b6000808273ffffffffffffffffffffffffffffffffffffffff163b119050919050565b600061241f61241a84612f3f565b612f1a565b90508281526020810184848401111561243757600080fd5b6124428482856130e2565b509392505050565b6000813590506124598161381f565b92915050565b60008135905061246e81613836565b92915050565b6000813590506124838161384d565b92915050565b6000815190506124988161384d565b92915050565b600082601f8301126124af57600080fd5b81356124bf84826020860161240c565b91505092915050565b6000813590506124d781613864565b92915050565b6000602082840312156124ef57600080fd5b60006124fd8482850161244a565b91505092915050565b6000806040838503121561251957600080fd5b60006125278582860161244a565b92505060206125388582860161244a565b9150509250929050565b60008060006060848603121561255757600080fd5b60006125658682870161244a565b93505060206125768682870161244a565b9250506040612587868287016124c8565b9150509250925092565b600080600080608085870312156125a757600080fd5b60006125b58782880161244a565b94505060206125c68782880161244a565b93505060406125d7878288016124c8565b925050606085013567ffffffffffffffff8111156125f457600080fd5b6126008782880161249e565b91505092959194509250565b6000806040838503121561261f57600080fd5b600061262d8582860161244a565b925050602061263e8582860161245f565b9150509250929050565b6000806040838503121561265b57600080fd5b60006126698582860161244a565b925050602061267a858286016124c8565b9150509250929050565b60006020828403121561269657600080fd5b60006126a48482850161245f565b91505092915050565b6000602082840312156126bf57600080fd5b60006126cd84828501612474565b91505092915050565b6000602082840312156126e857600080fd5b60006126f684828501612489565b91505092915050565b60006020828403121561271157600080fd5b600061271f848285016124c8565b91505092915050565b60008060006060848603121561273d57600080fd5b600061274b868287016124c8565b935050602061275c868287016124c8565b925050604061276d868287016124c8565b9150509250925092565b6127808161306e565b82525050565b61278f81613080565b82525050565b60006127a082612f70565b6127aa8185612f86565b93506127ba8185602086016130f1565b6127c3816132bd565b840191505092915050565b60006127d982612f7b565b6127e38185612f97565b93506127f38185602086016130f1565b6127fc816132bd565b840191505092915050565b600061281282612f7b565b61281c8185612fa8565b935061282c8185602086016130f1565b80840191505092915050565b6000612845603283612f97565b9150612850826132ce565b604082019050919050565b6000612868602683612f97565b91506128738261331d565b604082019050919050565b600061288b602583612f97565b91506128968261336c565b604082019050919050565b60006128ae601c83612f97565b91506128b9826133bb565b602082019050919050565b60006128d1602483612f97565b91506128dc826133e4565b604082019050919050565b60006128f4601983612f97565b91506128ff82613433565b602082019050919050565b6000612917602c83612f97565b91506129228261345c565b604082019050919050565b600061293a600f83612f97565b9150612945826134ab565b602082019050919050565b600061295d603883612f97565b9150612968826134d4565b604082019050919050565b6000612980601183612f97565b915061298b82613523565b602082019050919050565b60006129a3602a83612f97565b91506129ae8261354c565b604082019050919050565b60006129c6602983612f97565b91506129d18261359b565b604082019050919050565b60006129e9600f83612f97565b91506129f4826135ea565b602082019050919050565b6000612a0c601683612f97565b9150612a1782613613565b602082019050919050565b6000612a2f602083612f97565b9150612a3a8261363c565b602082019050919050565b6000612a52602c83612f97565b9150612a5d82613665565b604082019050919050565b6000612a75600583612fa8565b9150612a80826136b4565b600582019050919050565b6000612a98600e83612f97565b9150612aa3826136dd565b602082019050919050565b6000612abb602083612f97565b9150612ac682613706565b602082019050919050565b6000612ade601483612f97565b9150612ae98261372f565b602082019050919050565b6000612b01601c83612f97565b9150612b0c82613758565b602082019050919050565b6000612b24602183612f97565b9150612b2f82613781565b604082019050919050565b6000612b47603183612f97565b9150612b52826137d0565b604082019050919050565b612b66816130d8565b82525050565b6000612b788285612807565b9150612b848284612807565b9150612b8f82612a68565b91508190509392505050565b6000602082019050612bb06000830184612777565b92915050565b6000608082019050612bcb6000830187612777565b612bd86020830186612777565b612be56040830185612b5d565b8181036060830152612bf78184612795565b905095945050505050565b6000602082019050612c176000830184612786565b92915050565b60006020820190508181036000830152612c3781846127ce565b905092915050565b60006020820190508181036000830152612c5881612838565b9050919050565b60006020820190508181036000830152612c788161285b565b9050919050565b60006020820190508181036000830152612c988161287e565b9050919050565b60006020820190508181036000830152612cb8816128a1565b9050919050565b60006020820190508181036000830152612cd8816128c4565b9050919050565b60006020820190508181036000830152612cf8816128e7565b9050919050565b60006020820190508181036000830152612d188161290a565b9050919050565b60006020820190508181036000830152612d388161292d565b9050919050565b60006020820190508181036000830152612d5881612950565b9050919050565b60006020820190508181036000830152612d7881612973565b9050919050565b60006020820190508181036000830152612d9881612996565b9050919050565b60006020820190508181036000830152612db8816129b9565b9050919050565b60006020820190508181036000830152612dd8816129dc565b9050919050565b60006020820190508181036000830152612df8816129ff565b9050919050565b60006020820190508181036000830152612e1881612a22565b9050919050565b60006020820190508181036000830152612e3881612a45565b9050919050565b60006020820190508181036000830152612e5881612a8b565b9050919050565b60006020820190508181036000830152612e7881612aae565b9050919050565b60006020820190508181036000830152612e9881612ad1565b9050919050565b60006020820190508181036000830152612eb881612af4565b9050919050565b60006020820190508181036000830152612ed881612b17565b9050919050565b60006020820190508181036000830152612ef881612b3a565b9050919050565b6000602082019050612f146000830184612b5d565b92915050565b6000612f24612f35565b9050612f308282613156565b919050565b6000604051905090565b600067ffffffffffffffff821115612f5a57612f5961328e565b5b612f63826132bd565b9050602081019050919050565b600081519050919050565b600081519050919050565b600082825260208201905092915050565b600082825260208201905092915050565b600081905092915050565b6000612fbe826130d8565b9150612fc9836130d8565b9250827fffffffffffffffffffffffffffffffffffffffffffffffffffffffffffffffff03821115612ffe57612ffd613201565b5b828201905092915050565b6000613014826130d8565b915061301f836130d8565b92508261302f5761302e613230565b5b828204905092915050565b6000613045826130d8565b9150613050836130d8565b92508282101561306357613062613201565b5b828203905092915050565b6000613079826130b8565b9050919050565b60008115159050919050565b60007fffffffff0000000000000000000000000000000000000000000000000000000082169050919050565b600073ffffffffffffffffffffffffffffffffffffffff82169050919050565b6000819050919050565b82818337600083830152505050565b60005b8381101561310f5780820151818401526020810190506130f4565b8381111561311e576000848401525b50505050565b6000600282049050600182168061313c57607f821691505b602082108114156131505761314f61325f565b5b50919050565b61315f826132bd565b810181811067ffffffffffffffff8211171561317e5761317d61328e565b5b80604052505050565b6000613192826130d8565b91507fffffffffffffffffffffffffffffffffffffffffffffffffffffffffffffffff8214156131c5576131c4613201565b5b600182019050919050565b60006131db826130d8565b91506131e6836130d8565b9250826131f6576131f5613230565b5b828206905092915050565b7f4e487b7100000000000000000000000000000000000000000000000000000000600052601160045260246000fd5b7f4e487b7100000000000000000000000000000000000000000000000000000000600052601260045260246000fd5b7f4e487b7100000000000000000000000000000000000000000000000000000000600052602260045260246000fd5b7f4e487b7100000000000000000000000000000000000000000000000000000000600052604160045260246000fd5b6000601f19601f8301169050919050565b7f4552433732313a207472616e7366657220746f206e6f6e20455243373231526560008201527f63656976657220696d706c656d656e7465720000000000000000000000000000602082015250565b7f4f776e61626c653a206e6577206f776e657220697320746865207a65726f206160008201527f6464726573730000000000000000000000000000000000000000000000000000602082015250565b7f4552433732313a207472616e736665722066726f6d20696e636f72726563742060008201527f6f776e6572000000000000000000000000000000000000000000000000000000602082015250565b7f4552433732313a20746f6b656e20616c7265616479206d696e74656400000000600082015250565b7f4552433732313a207472616e7366657220746f20746865207a65726f2061646460008201527f7265737300000000000000000000000000000000000000000000000000000000602082015250565b7f4552433732313a20617070726f766520746f2063616c6c657200000000000000600082015250565b7f4552433732313a206f70657261746f7220717565727920666f72206e6f6e657860008201527f697374656e7420746f6b656e0000000000000000000000000000000000000000602082015250565b7f41756374696f6e206973206f7665720000000000000000000000000000000000600082015250565b7f4552433732313a20617070726f76652063616c6c6572206973206e6f74206f7760008201527f6e6572206e6f7220617070726f76656420666f7220616c6c0000000000000000602082015250565b7f4e6f6e6578697374656e7420746f6b656e000000000000000000000000000000600082015250565b7f4552433732313a2062616c616e636520717565727920666f7220746865207a6560008201527f726f206164647265737300000000000000000000000000000000000000000000602082015250565b7f4552433732313a206f776e657220717565727920666f72206e6f6e657869737460008201527f656e7420746f6b656e0000000000000000000000000000000000000000000000602082015250565b7f416c72656164792072756e6e696e670000000000000000000000000000000000600082015250565b7f596f75206861766520746f206f66666572206d6f726500000000000000000000600082015250565b7f4552433732313a206d696e7420746f20746865207a65726f2061646472657373600082015250565b7f4552433732313a20617070726f76656420717565727920666f72206e6f6e657860008201527f697374656e7420746f6b656e0000000000000000000000000000000000000000602082015250565b7f2e6a736f6e000000000000000000000000000000000000000000000000000000600082015250565b7f41756374696f6e20706175736564000000000000000000000000000000000000600082015250565b7f4f776e61626c653a2063616c6c6572206973206e6f7420746865206f776e6572600082015250565b7f5468652074696d65206973206e6f74206f766572000000000000000000000000600082015250565b7f576169742074696c6c207468652061756374696f6e2073746172747300000000600082015250565b7f4552433732313a20617070726f76616c20746f2063757272656e74206f776e6560008201527f7200000000000000000000000000000000000000000000000000000000000000602082015250565b7f4552433732313a207472616e736665722063616c6c6572206973206e6f74206f60008201527f776e6572206e6f7220617070726f766564000000000000000000000000000000602082015250565b6138288161306e565b811461383357600080fd5b50565b61383f81613080565b811461384a57600080fd5b50565b6138568161308c565b811461386157600080fd5b50565b61386d816130d8565b811461387857600080fd5b5056fe68747470733a2f2f67796d616c7068612e6d7970696e6174612e636c6f75642f697066732f516d5153393843334146734b5a32416654317a6a553167634156374a4d4576745950426d7039314b597068576b482fa26469706673582212203e65cc6987aa90ad3d857f960d441707ea77e9fec96f8ac85a8b68d0f56730ee64736f6c63430008040033",
  "linkReferences": {},
  "deployedLinkReferences": {}
}