{
  "_format": "hh-sol-artifact-1",
  "contractName": "Staking",
  "sourceName": "contracts/Staking.sol",
  "abi": [
    {
      "inputs": [
        {
          "internalType": "address",
          "name": "nftAddress",
          "type": "address"
        },
        {
          "internalType": "address",
          "name": "tokenAddress",
          "type": "address"
        }
      ],
      "stateMutability": "nonpayable",
      "type": "constructor"
    },
    {
      "anonymous": false,
      "inputs": [
        {
          "indexed": false,
          "internalType": "address",
          "name": "owner",
          "type": "address"
        },
        {
          "indexed": false,
          "internalType": "uint256",
          "name": "amount",
          "type": "uint256"
        }
      ],
      "name": "Claimed",
      "type": "event"
    },
    {
      "anonymous": false,
      "inputs": [
        {
          "indexed": false,
          "internalType": "address",
          "name": "owner",
          "type": "address"
        },
        {
          "indexed": false,
          "internalType": "uint256",
          "name": "tokenId",
          "type": "uint256"
        },
        {
          "indexed": false,
          "internalType": "uint256",
          "name": "value",
          "type": "uint256"
        }
      ],
      "name": "NFTStaked",
      "type": "event"
    },
    {
      "anonymous": false,
      "inputs": [
        {
          "indexed": false,
          "internalType": "address",
          "name": "owner",
          "type": "address"
        },
        {
          "indexed": false,
          "internalType": "uint256",
          "name": "tokenId",
          "type": "uint256"
        },
        {
          "indexed": false,
          "internalType": "uint256",
          "name": "value",
          "type": "uint256"
        }
      ],
      "name": "NFTUnstaked",
      "type": "event"
    },
    {
      "anonymous": false,
      "inputs": [
        {
          "indexed": true,
          "internalType": "address",
          "name": "previousOwner",
          "type": "address"
        },
        {
          "indexed": true,
          "internalType": "address",
          "name": "newOwner",
          "type": "address"
        }
      ],
      "name": "OwnershipTransferred",
      "type": "event"
    },
    {
      "inputs": [
        {
          "internalType": "uint256[]",
          "name": "tokenIds",
          "type": "uint256[]"
        },
        {
          "internalType": "bool",
          "name": "_unstake",
          "type": "bool"
        }
      ],
      "name": "claim",
      "outputs": [],
      "stateMutability": "nonpayable",
      "type": "function"
    },
    {
      "inputs": [
        {
          "internalType": "address",
          "name": "",
          "type": "address"
        }
      ],
      "name": "earnedFromUnstaked",
      "outputs": [
        {
          "internalType": "uint256",
          "name": "",
          "type": "uint256"
        }
      ],
      "stateMutability": "view",
      "type": "function"
    },
    {
      "inputs": [
        {
          "internalType": "address",
          "name": "user",
          "type": "address"
        }
      ],
      "name": "getFromUnstaked",
      "outputs": [
        {
          "internalType": "uint256",
          "name": "",
          "type": "uint256"
        }
      ],
      "stateMutability": "view",
      "type": "function"
    },
    {
      "inputs": [
        {
          "internalType": "address",
          "name": "operator",
          "type": "address"
        },
        {
          "internalType": "address",
          "name": "from",
          "type": "address"
        },
        {
          "internalType": "uint256",
          "name": "tokenId",
          "type": "uint256"
        },
        {
          "internalType": "bytes",
          "name": "data",
          "type": "bytes"
        }
      ],
      "name": "onERC721Received",
      "outputs": [
        {
          "internalType": "bytes4",
          "name": "",
          "type": "bytes4"
        }
      ],
      "stateMutability": "pure",
      "type": "function"
    },
    {
      "inputs": [],
      "name": "owner",
      "outputs": [
        {
          "internalType": "address",
          "name": "",
          "type": "address"
        }
      ],
      "stateMutability": "view",
      "type": "function"
    },
    {
      "inputs": [],
      "name": "renounceOwnership",
      "outputs": [],
      "stateMutability": "nonpayable",
      "type": "function"
    },
    {
      "inputs": [
        {
          "internalType": "uint256",
          "name": "tokenId",
          "type": "uint256"
        }
      ],
      "name": "stake",
      "outputs": [],
      "stateMutability": "nonpayable",
      "type": "function"
    },
    {
      "inputs": [
        {
          "internalType": "uint256",
          "name": "",
          "type": "uint256"
        }
      ],
      "name": "stakingVault",
      "outputs": [
        {
          "internalType": "uint24",
          "name": "tokenId",
          "type": "uint24"
        },
        {
          "internalType": "uint48",
          "name": "timestamp",
          "type": "uint48"
        },
        {
          "internalType": "address",
          "name": "owner",
          "type": "address"
        }
      ],
      "stateMutability": "view",
      "type": "function"
    },
    {
      "inputs": [],
      "name": "totalStaked",
      "outputs": [
        {
          "internalType": "uint256",
          "name": "",
          "type": "uint256"
        }
      ],
      "stateMutability": "view",
      "type": "function"
    },
    {
      "inputs": [
        {
          "internalType": "address",
          "name": "newOwner",
          "type": "address"
        }
      ],
      "name": "transferOwnership",
      "outputs": [],
      "stateMutability": "nonpayable",
      "type": "function"
    },
    {
      "inputs": [
        {
          "internalType": "address",
          "name": "account",
          "type": "address"
        },
        {
          "internalType": "uint256[]",
          "name": "tokenIds",
          "type": "uint256[]"
        }
      ],
      "name": "unstakeNFT",
      "outputs": [],
      "stateMutability": "nonpayable",
      "type": "function"
    },
    {
      "inputs": [
        {
          "internalType": "address",
          "name": "",
          "type": "address"
        }
      ],
      "name": "userStake",
      "outputs": [
        {
          "internalType": "uint256",
          "name": "",
          "type": "uint256"
        }
      ],
      "stateMutability": "view",
      "type": "function"
    },
    {
      "inputs": [
        {
          "internalType": "uint256[]",
          "name": "tokenIds",
          "type": "uint256[]"
        }
      ],
      "name": "viewEarnedTokens",
      "outputs": [
        {
          "internalType": "uint256",
          "name": "",
          "type": "uint256"
        }
      ],
      "stateMutability": "view",
      "type": "function"
    }
  ],
  "bytecode": "0x60806040523480156200001157600080fd5b5060405162001e3e38038062001e3e8339818101604052810190620000379190620001c4565b620000576200004b620000e160201b60201c565b620000e960201b60201c565b81600560006101000a81548173ffffffffffffffffffffffffffffffffffffffff021916908373ffffffffffffffffffffffffffffffffffffffff16021790555080600660006101000a81548173ffffffffffffffffffffffffffffffffffffffff021916908373ffffffffffffffffffffffffffffffffffffffff160217905550505062000253565b600033905090565b60008060009054906101000a900473ffffffffffffffffffffffffffffffffffffffff169050816000806101000a81548173ffffffffffffffffffffffffffffffffffffffff021916908373ffffffffffffffffffffffffffffffffffffffff1602179055508173ffffffffffffffffffffffffffffffffffffffff168173ffffffffffffffffffffffffffffffffffffffff167f8be0079c531659141344cd1fd0a4f28419497f9722a3daafe3b4186f6b6457e060405160405180910390a35050565b600081519050620001be8162000239565b92915050565b60008060408385031215620001d857600080fd5b6000620001e885828601620001ad565b9250506020620001fb85828601620001ad565b9150509250929050565b6000620002128262000219565b9050919050565b600073ffffffffffffffffffffffffffffffffffffffff82169050919050565b620002448162000205565b81146200025057600080fd5b50565b611bdb80620002636000396000f3fe608060405234801561001057600080fd5b50600436106100cf5760003560e01c80637860b77b1161008c578063a694fc3a11610066578063a694fc3a14610228578063c50cda1214610244578063edc8d24b14610260578063f2fde38b14610290576100cf565b80637860b77b146101ba578063817b1cd2146101ec5780638da5cb5b1461020a576100cf565b8063131de7d3146100d4578063150b7a02146101045780635b226011146101345780635c93b65c1461016457806368e5585d14610180578063715018a6146101b0575b600080fd5b6100ee60048036038101906100e9919061155f565b6102ac565b6040516100fb91906118a9565b60405180910390f35b61011e60048036038101906101199190611487565b610412565b60405161012b91906117d7565b60405180910390f35b61014e60048036038101906101499190611435565b610427565b60405161015b91906118a9565b60405180910390f35b61017e60048036038101906101799190611507565b610470565b005b61019a60048036038101906101959190611435565b61086b565b6040516101a791906118a9565b60405180910390f35b6101b8610883565b005b6101d460048036038101906101cf9190611625565b61090b565b6040516101e393929190611872565b60405180910390f35b6101f4610976565b60405161020191906118a9565b60405180910390f35b61021261097c565b60405161021f9190611725565b60405180910390f35b610242600480360381019061023d9190611625565b6109a5565b005b61025e600480360381019061025991906115a4565b610ce5565b005b61027a60048036038101906102759190611435565b61115c565b60405161028791906118a9565b60405180910390f35b6102aa60048036038101906102a59190611435565b611174565b005b6000806000805b85859050811015610406578585828181106102f7577f4e487b7100000000000000000000000000000000000000000000000000000000600052603260045260246000fd5b9050602002013592506000600360008581526020019081526020016000206040518060600160405290816000820160009054906101000a900462ffffff1662ffffff1662ffffff1681526020016000820160039054906101000a900465ffffffffffff1665ffffffffffff1665ffffffffffff1681526020016000820160099054906101000a900473ffffffffffffffffffffffffffffffffffffffff1673ffffffffffffffffffffffffffffffffffffffff1673ffffffffffffffffffffffffffffffffffffffff168152505090506000816020015165ffffffffffff16905080426103e4919061192b565b846103ef91906118d5565b9350505080806103fe90611a1e565b9150506102b3565b50809250505092915050565b600063150b7a0260e01b905095945050505050565b6000600260008373ffffffffffffffffffffffffffffffffffffffff1673ffffffffffffffffffffffffffffffffffffffff168152602001908152602001600020549050919050565b600080600090505b83839050811015610864578383828181106104bc577f4e487b7100000000000000000000000000000000000000000000000000000000600052603260045260246000fd5b9050602002013591506000600360008481526020019081526020016000206040518060600160405290816000820160009054906101000a900462ffffff1662ffffff1662ffffff1681526020016000820160039054906101000a900465ffffffffffff1665ffffffffffff1665ffffffffffff1681526020016000820160099054906101000a900473ffffffffffffffffffffffffffffffffffffffff1673ffffffffffffffffffffffffffffffffffffffff1673ffffffffffffffffffffffffffffffffffffffff168152505090508573ffffffffffffffffffffffffffffffffffffffff16816040015173ffffffffffffffffffffffffffffffffffffffff161415610850578573ffffffffffffffffffffffffffffffffffffffff16816040015173ffffffffffffffffffffffffffffffffffffffff1614610636576040517f08c379a000000000000000000000000000000000000000000000000000000000815260040161062d90611852565b60405180910390fd5b6000816020015165ffffffffffff1690508042610653919061192b565b600260008973ffffffffffffffffffffffffffffffffffffffff1673ffffffffffffffffffffffffffffffffffffffff16815260200190815260200160002060008282546106a191906118d5565b9250508190555060036000858152602001908152602001600020600080820160006101000a81549062ffffff02191690556000820160036101000a81549065ffffffffffff02191690556000820160096101000a81549073ffffffffffffffffffffffffffffffffffffffff021916905550506001806000828254610726919061192b565b92505081905550600460003373ffffffffffffffffffffffffffffffffffffffff1673ffffffffffffffffffffffffffffffffffffffff168152602001908152602001600020600081548092919061077d906119f4565b9190505550600560009054906101000a900473ffffffffffffffffffffffffffffffffffffffff1673ffffffffffffffffffffffffffffffffffffffff166342842e0e3089876040518463ffffffff1660e01b81526004016107e193929190611740565b600060405180830381600087803b1580156107fb57600080fd5b505af115801561080f573d6000803e3d6000fd5b505050507fc486b9458a8637650d84d262414833a5a457bc91ae86b7da110386c8c3fa255b878542604051610846939291906117a0565b60405180910390a1505b50808061085c90611a1e565b915050610478565b5050505050565b60046020528060005260406000206000915090505481565b61088b61126c565b73ffffffffffffffffffffffffffffffffffffffff166108a961097c565b73ffffffffffffffffffffffffffffffffffffffff16146108ff576040517f08c379a00000000000000000000000000000000000000000000000000000000081526004016108f690611832565b60405180910390fd5b6109096000611274565b565b60036020528060005260406000206000915090508060000160009054906101000a900462ffffff16908060000160039054906101000a900465ffffffffffff16908060000160099054906101000a900473ffffffffffffffffffffffffffffffffffffffff16905083565b60015481565b60008060009054906101000a900473ffffffffffffffffffffffffffffffffffffffff16905090565b3373ffffffffffffffffffffffffffffffffffffffff16600560009054906101000a900473ffffffffffffffffffffffffffffffffffffffff1673ffffffffffffffffffffffffffffffffffffffff16636352211e836040518263ffffffff1660e01b8152600401610a1791906118a9565b60206040518083038186803b158015610a2f57600080fd5b505afa158015610a43573d6000803e3d6000fd5b505050506040513d601f19601f82011682018060405250810190610a67919061145e565b73ffffffffffffffffffffffffffffffffffffffff1614610abd576040517f08c379a0000000000000000000000000000000000000000000000000000000008152600401610ab490611812565b60405180910390fd5b600560009054906101000a900473ffffffffffffffffffffffffffffffffffffffff1673ffffffffffffffffffffffffffffffffffffffff166342842e0e3330846040518463ffffffff1660e01b8152600401610b1c93929190611740565b600060405180830381600087803b158015610b3657600080fd5b505af1158015610b4a573d6000803e3d6000fd5b505050506001806000828254610b6091906118d5565b925050819055507f36b3725f1783bad4ff05b7f4c077c3aa68eeb23a4d054ba189db4d01ac278d39338242604051610b9a939291906117a0565b60405180910390a1600460003373ffffffffffffffffffffffffffffffffffffffff1673ffffffffffffffffffffffffffffffffffffffff1681526020019081526020016000206000815480929190610bf290611a1e565b919050555060405180606001604052808262ffffff1681526020014265ffffffffffff1681526020013373ffffffffffffffffffffffffffffffffffffffff168152506003600083815260200190815260200160002060008201518160000160006101000a81548162ffffff021916908362ffffff16021790555060208201518160000160036101000a81548165ffffffffffff021916908365ffffffffffff16021790555060408201518160000160096101000a81548173ffffffffffffffffffffffffffffffffffffffff021916908373ffffffffffffffffffffffffffffffffffffffff16021790555090505050565b600080600090506000805b8686905081101561103857868682818110610d34577f4e487b7100000000000000000000000000000000000000000000000000000000600052603260045260246000fd5b9050602002013593506000600360008681526020019081526020016000206040518060600160405290816000820160009054906101000a900462ffffff1662ffffff1662ffffff1681526020016000820160039054906101000a900465ffffffffffff1665ffffffffffff1665ffffffffffff1681526020016000820160099054906101000a900473ffffffffffffffffffffffffffffffffffffffff1673ffffffffffffffffffffffffffffffffffffffff1673ffffffffffffffffffffffffffffffffffffffff168152505090503373ffffffffffffffffffffffffffffffffffffffff16816040015173ffffffffffffffffffffffffffffffffffffffff1614610e9b576000831415610e9657600260003373ffffffffffffffffffffffffffffffffffffffff1673ffffffffffffffffffffffffffffffffffffffff1681526020019081526020016000205484610e8f91906118d5565b9350600192505b611024565b3373ffffffffffffffffffffffffffffffffffffffff16816040015173ffffffffffffffffffffffffffffffffffffffff1614610f0d576040517f08c379a0000000000000000000000000000000000000000000000000000000008152600401610f0490611852565b60405180910390fd5b6000816020015165ffffffffffff1690508042610f2a919061192b565b85610f3591906118d5565b945060405180606001604052808762ffffff1681526020014265ffffffffffff1681526020013373ffffffffffffffffffffffffffffffffffffffff168152506003600088815260200190815260200160002060008201518160000160006101000a81548162ffffff021916908362ffffff16021790555060208201518160000160036101000a81548165ffffffffffff021916908365ffffffffffff16021790555060408201518160000160096101000a81548173ffffffffffffffffffffffffffffffffffffffff021916908373ffffffffffffffffffffffffffffffffffffffff160217905550905050505b50808061103090611a1e565b915050610cf0565b50600082111561110957600660009054906101000a900473ffffffffffffffffffffffffffffffffffffffff1673ffffffffffffffffffffffffffffffffffffffff166323b872dd73f39fd6e51aad88f6f4ce6ab8827279cfffb9226633856040518463ffffffff1660e01b81526004016110b593929190611740565b602060405180830381600087803b1580156110cf57600080fd5b505af11580156110e3573d6000803e3d6000fd5b505050506040513d601f19601f8201168201806040525081019061110791906115fc565b505b831561111b5761111a338787610470565b5b7fd8138f8a3f377c5259ca548e70e4c2de94f129f5a11036a15b69513cba2b426a338360405161114c929190611777565b60405180910390a1505050505050565b60026020528060005260406000206000915090505481565b61117c61126c565b73ffffffffffffffffffffffffffffffffffffffff1661119a61097c565b73ffffffffffffffffffffffffffffffffffffffff16146111f0576040517f08c379a00000000000000000000000000000000000000000000000000000000081526004016111e790611832565b60405180910390fd5b600073ffffffffffffffffffffffffffffffffffffffff168173ffffffffffffffffffffffffffffffffffffffff161415611260576040517f08c379a0000000000000000000000000000000000000000000000000000000008152600401611257906117f2565b60405180910390fd5b61126981611274565b50565b600033905090565b60008060009054906101000a900473ffffffffffffffffffffffffffffffffffffffff169050816000806101000a81548173ffffffffffffffffffffffffffffffffffffffff021916908373ffffffffffffffffffffffffffffffffffffffff1602179055508173ffffffffffffffffffffffffffffffffffffffff168173ffffffffffffffffffffffffffffffffffffffff167f8be0079c531659141344cd1fd0a4f28419497f9722a3daafe3b4186f6b6457e060405160405180910390a35050565b60008135905061134781611b60565b92915050565b60008151905061135c81611b60565b92915050565b60008083601f84011261137457600080fd5b8235905067ffffffffffffffff81111561138d57600080fd5b6020830191508360208202830111156113a557600080fd5b9250929050565b6000813590506113bb81611b77565b92915050565b6000815190506113d081611b77565b92915050565b60008083601f8401126113e857600080fd5b8235905067ffffffffffffffff81111561140157600080fd5b60208301915083600182028301111561141957600080fd5b9250929050565b60008135905061142f81611b8e565b92915050565b60006020828403121561144757600080fd5b600061145584828501611338565b91505092915050565b60006020828403121561147057600080fd5b600061147e8482850161134d565b91505092915050565b60008060008060006080868803121561149f57600080fd5b60006114ad88828901611338565b95505060206114be88828901611338565b94505060406114cf88828901611420565b935050606086013567ffffffffffffffff8111156114ec57600080fd5b6114f8888289016113d6565b92509250509295509295909350565b60008060006040848603121561151c57600080fd5b600061152a86828701611338565b935050602084013567ffffffffffffffff81111561154757600080fd5b61155386828701611362565b92509250509250925092565b6000806020838503121561157257600080fd5b600083013567ffffffffffffffff81111561158c57600080fd5b61159885828601611362565b92509250509250929050565b6000806000604084860312156115b957600080fd5b600084013567ffffffffffffffff8111156115d357600080fd5b6115df86828701611362565b935093505060206115f2868287016113ac565b9150509250925092565b60006020828403121561160e57600080fd5b600061161c848285016113c1565b91505092915050565b60006020828403121561163757600080fd5b600061164584828501611420565b91505092915050565b6116578161195f565b82525050565b6116668161197d565b82525050565b60006116796026836118c4565b915061168482611a96565b604082019050919050565b600061169c6017836118c4565b91506116a782611ae5565b602082019050919050565b60006116bf6020836118c4565b91506116ca82611b0e565b602082019050919050565b60006116e26014836118c4565b91506116ed82611b37565b602082019050919050565b611701816119c9565b82525050565b611710816119d8565b82525050565b61171f816119e2565b82525050565b600060208201905061173a600083018461164e565b92915050565b6000606082019050611755600083018661164e565b611762602083018561164e565b61176f6040830184611707565b949350505050565b600060408201905061178c600083018561164e565b6117996020830184611707565b9392505050565b60006060820190506117b5600083018661164e565b6117c26020830185611707565b6117cf6040830184611707565b949350505050565b60006020820190506117ec600083018461165d565b92915050565b6000602082019050818103600083015261180b8161166c565b9050919050565b6000602082019050818103600083015261182b8161168f565b9050919050565b6000602082019050818103600083015261184b816116b2565b9050919050565b6000602082019050818103600083015261186b816116d5565b9050919050565b600060608201905061188760008301866116f8565b6118946020830185611716565b6118a1604083018461164e565b949350505050565b60006020820190506118be6000830184611707565b92915050565b600082825260208201905092915050565b60006118e0826119d8565b91506118eb836119d8565b9250827fffffffffffffffffffffffffffffffffffffffffffffffffffffffffffffffff038211156119205761191f611a67565b5b828201905092915050565b6000611936826119d8565b9150611941836119d8565b92508282101561195457611953611a67565b5b828203905092915050565b600061196a826119a9565b9050919050565b60008115159050919050565b60007fffffffff0000000000000000000000000000000000000000000000000000000082169050919050565b600073ffffffffffffffffffffffffffffffffffffffff82169050919050565b600062ffffff82169050919050565b6000819050919050565b600065ffffffffffff82169050919050565b60006119ff826119d8565b91506000821415611a1357611a12611a67565b5b600182039050919050565b6000611a29826119d8565b91507fffffffffffffffffffffffffffffffffffffffffffffffffffffffffffffffff821415611a5c57611a5b611a67565b5b600182019050919050565b7f4e487b7100000000000000000000000000000000000000000000000000000000600052601160045260246000fd5b7f4f776e61626c653a206e6577206f776e657220697320746865207a65726f206160008201527f6464726573730000000000000000000000000000000000000000000000000000602082015250565b7f596f7520646f6e277420686176652074686973204e4654000000000000000000600082015250565b7f4f776e61626c653a2063616c6c6572206973206e6f7420746865206f776e6572600082015250565b7f596f7520617265206e6f7420616e206f776e6572000000000000000000000000600082015250565b611b698161195f565b8114611b7457600080fd5b50565b611b8081611971565b8114611b8b57600080fd5b50565b611b97816119d8565b8114611ba257600080fd5b5056fea2646970667358221220f7d9b02672cfc70ff9e53e14605a1d5a0297c8888af3884b40fb0536de97bdfe64736f6c63430008040033",
  "linkReferences": {},
  "deployedLinkReferences": {}
}